:100000000C9434000C9451000C9451000C94510049
:100010000C9451000C9451000C9451000C9451001C
:100020000C9451000C9451000C9451000C94C80392
:100030000C9451000C9451000C9451000C945100FC
:100040000C94E9130C9451000C9451000C94510041
:100050000C9451000C9451000C9451000C945100DC
:100060000C9451000C94510011241FBECFEFD8E026
:10007000DEBFCDBF12E0A0E0B1E0E0EDF1E302C0F1
:1000800005900D92A43FB107D9F723E0A4EFB2E0A9
:1000900001C01D92AD33B207E1F70E94D8130C9452
:1000A000E6180C94000000000000000000000000B2
:1000B0000000000000000000000000000000000040
:1000C0000000000000000000000000000000000030
:1000D0000000000000000000000000000000000020
:1000E0000000000000000000000000000000000010
:1000F0000000000000000000000000000000000000
:1001000000000000000000000000000000000000EF
:1001100000000000000000000000000000000000DF
:1001200000000000000000000000000000000000CF
:1001300000000000000000000000000000000000BF
:1001400000000000000000000000000000000000AF
:10015000000000000000000000000000000000009F
:10016000000000000000000000000000000000008F
:10017000000000000000000000000000000000007F
:10018000000000000000000000000000000000006F
:10019000000000000000000000000000000000005F
:1001A000000000000000000000000000000000004F
:1001B000000000000000000000000000000000003F
:1001C000000000000000000000000000000000002F
:1001D000000000000000000000000000000000001F
:1001E000000000000000000000000000000000000F
:1001F00000000000000000000000000000000000FF
:1002000000000000000000000000000000000000EE
:1002100000000000000000000000000000000000DE
:1002200000000000000000000000000000000000CE
:100230000000000808080808080008000000001472
:1002400014140000000000000000000014143E140C
:100250003E14140000000000083C0A1C281E080080
:1002600000000000062610080432300000000000E4
:100270001C0202042A122C000000001808040000CE
:1002800000000000000020101008080808081010E6
:100290002000020404080808080804040200000002
:1002A00000082A1C2A080000000000000008083E80
:1002B00008080000000000000000000000181808F6
:1002C000040000000000003E0000000000000000EC
:1002D000000000000018180000002020101008087E
:1002E000040402020000001C22322A2622221C00E2
:1002F000000000080C080808080808000000001C9E
:100300002220100804023E000000001C22201820B9
:1003100020221C0000000010181814143E10380091
:100320000000003E02021E2020221C0000000018D7
:1003300004021E2222221C000000003E2220201067
:10034000100808000000001C22221C2222221C008F
:100350000000001C2222223C20100C0000000000A3
:1003600000181800001818000000000000181800FD
:10037000001818080400000000300C030C300000C6
:100380000000000000003E003E00000000000000F1
:1003900000030C300C0300000000001C2220100899
:1003A00008000800000000001C223A3A1A021C0053
:1003B00000000000081422223E222200000000005B
:1003C0001E22221E22221E00000000001C22020209
:1003D00002221C00000000000E12222222120E0037
:1003E000000000003E02021E02023E00000000006B
:1003F0003E02021E02020200000000001C22023225
:1004000022223C00000000002222223E2222220062
:10041000000000003E08080808083E000000000038
:100420003820202022221C000000000022120A0690
:100430000A122200000000000202020202023E0034
:100440000000000022362A2A22222200000000009A
:100450002226262A32322200000000001C222222FC
:1004600022221C00000000001E22221E02020200A6
:10047000000000001C22222222221C30000000006A
:100480001E22221E0A122200000000001C22021C52
:1004900020221C00000000003E0808080808080090
:1004A000000000002222222222221C000000000064
:1004B0002222221414080800000000002222222A0E
:1004C0002A362200000000002222140814222200F2
:1004D00000000000222214080808080000000000A4
:1004E0003E20100804023E000000380808080808F2
:1004F0000808080838000202040408081010202028
:1005000000000E0808080808080808080E0000087F
:1005100014220000000000000000000000000000A5
:100520000000003F0000000C081000000000000068
:100530000000000000003C2222322C0000000002DB
:1005400002021E2222221E000000000000003C02C7
:1005500002023C000000002020203C2222223C001D
:100560000000000000001C223E021C0000000038B9
:1005700004041E04040404000000000000003C22E7
:1005800022223C20201C000202021E2222222200E3
:100590000000000808000C0808081C0000000010FB
:1005A00010001C1010101010100E00020202120A8F
:1005B000060A12000000000C0808080808081C00C1
:1005C000000000000000162A2A2A22000000000075
:1005D00000001A26222222000000000000001C2237
:1005E00022221C000000000000001E2222221E0207
:1005F0000202000000003C2222223C2020200000B9
:1006000000001A06020202000000000000003C0286
:100610001C201E000000000808083E0808083000E2
:10062000000000000000222222322C000000000006
:100630000000361414080800000000000000222A00
:100640002A2A1400000000000000221408142200CE
:10065000000000000000222222223C20201C00007A
:1006600000003E1008043E0000002010101010088A
:1006700010101010200008080808080808080808CA
:100680000800020404040408040404040200000432
:100690002A100000000000000000000000080814FC
:1006A00014223E000000CF93DF939CE0899FE3E596
:1006B000F0E0EE0FFF1FE00DF11D8CE0EB019591D6
:1006C00099938A95E1F71124DF91CF9108950F93C3
:1006D0001F93CF93DF938091210390912203A091E8
:1006E0002303B09124030196A11DB11D8093210322
:1006F00090932203A0932303B093240380911D03BE
:1007000090911E03A0911F03B0912003892B8A2B87
:100710008B2B99F080911D0390911E03A0911F03D4
:10072000B09120030197A109B10980931D03909313
:100730001E03A0931F03B0932003CCEFD2E0899156
:100740009991009739F0DC01ED91FC910190F081D5
:10075000E02D0995B3E0CC31DB0789F7C4EFD2E097
:100760000CEF12E088819981009749F0DC01ED914E
:10077000FC910190F081E02D099519821882229652
:100780000C171D0779F7DF91CF911F910F910895F5
:100790001F920F920FB60F9211242F933F934F93F6
:1007A0005F936F937F938F939F93AF93BF93EF93D9
:1007B000FF930E946703FF91EF91BF91AF919F91CB
:1007C0008F917F916F915F914F913F912F910F90FA
:1007D0000FBE0F901F90189560931D0370931E031A
:1007E00080931F039093200380911D0390911E031B
:1007F000A0911F03B0912003892B8A2B8B2BA1F78B
:1008000008956091210370912203809123039091B8
:1008100024030895ECEFF2E020E030E06191719163
:10082000A9014F5F5F4F672B49F4220F331FF90176
:10083000E450FD4F91838083CA0108959A014031AD
:10084000510561F780E090E00895F89410928000DF
:100850008AE08093810010928200109285001092AD
:10086000840080E29EE4909389008093880082E077
:1008700080936F00109221031092220310922303A1
:100880001092240310921C03ECEFF2E011921192EB
:1008900083E0EC31F807D1F7E4EFF2E084E193E094
:1008A000119211928E179F07D9F7789408950895A1
:1008B000CF93DF931F92CDB7DEB784B1898389814F
:1008C00087628983898184B985B189838981887D9B
:1008D0008983898185B9898181608983898185B985
:1008E00089818E7F8983898185B9898182608983A5
:1008F000898185B989818D7F8983898185B90F90A7
:10090000DF91CF910895CF93DF931F92CDB7DEB7DC
:10091000F89425B129832981287D2983298125B946
:100920002FE530E749E052E40E9442130E94AD12E5
:1009300040E250E0298160FF02C0246001C02B7FAB
:100940002983298125B9298121602983298125B914
:1009500029812E7F2983298125B9969587957795B9
:1009600067954150510931F789818B7F898389814E
:1009700085B988E090E0298121602983298125B902
:1009800029812E7F2983298125B90197A1F78981A2
:1009900082608983898185B989818D7F89838981F5
:1009A00085B978940F90DF91CF910895FC018381F0
:1009B0008F5F83839481891720F0138282818F5FF8
:1009C0008283089526E332E0FC0131832083128282
:1009D000648313820C940A04FC012281222319F0FF
:1009E000128281E0089580E00895BF92CF92DF9255
:1009F000EF92FF920F931F93CF93DF93EC01B62EEC
:100A0000C42ED22E8CE392E09983888304E010E018
:100A10001E870D878BE090E00E94E7137C014D2D2F
:100A20006B2D0E94DC0FFB82EA828BE090E00E943B
:100A3000E7137C014D2D6C2D0E94DC0FFD82EC82B2
:100A40008A819B810E9446102C813D81882369F018
:100A5000C9010E944610882319F082E090E002C08C
:100A600081E090E09F838E830AC0C9010E944610F6
:100A7000882319F01F830E8302C01F821E821886EE
:100A8000CE010E940A041A8619861C861B86DF91F5
:100A9000CF911F910F91FF90EF90DF90CF90BF907B
:100AA00008951F93CF93DF93EC018A819B810E946D
:100AB0003810811107C08C819D810E9438108823D5
:100AC00009F45FC08A819B810E9440102C813D8186
:100AD000823039F4C9010E94461081111DC011E015
:100AE00027C0C9010E9440102A813B81823021F435
:100AF0008D859E85049759F0C9010E9440102C8174
:100B00003D81813059F48D859E85019739F0C90169
:100B10000E9446108111E3CF12E00AC0C9010E9471
:100B20004010813021F48D859E85049739F110E0C5
:100B30008A819B810E9443108C819D810E94431079
:100B40001123F9F08885113061F4813031F4898501
:100B50009A8501969A87898714C01A8619861887FC
:100B600010C0823031F48B859C8501969C878B87E1
:100B700008C01C861B8682E0888703C08A819B810F
:100B8000AACFDF91CF911F9108950C94510521E0D8
:100B9000FC018085811101C020E0822F0895FC01B5
:100BA00080850895FC0110860895FC018185928559
:100BB000128611860895FC01838594851486138618
:100BC000089570E0FC017687658708958F929F9263
:100BD000AF92BF92CF92EF92FF920F931F93CF935A
:100BE000DF93CDB7DEB7EC970FB6F894DEBF0FBE3C
:100BF000CDBF962E142FF89419822A831B82215F71
:100C00002C838AE20E94910964E0CE0101960E9441
:100C1000A3090E94CD0919821A831B82195E1C83C5
:100C20008BE20E94910964E0CE0101960E94A30923
:100C30000E94CD09BE016F5C7F4F892D0E94530336
:100C40008CE20E949109812C912CF401F595E79595
:100C500081E390E08C0F9D1FE80FF91F9081FE014A
:100C6000319686E090FF07C0E082F1820283E38242
:100C7000F482058306C0A082B182C282A382B482BC
:100C8000C58296958A5F3696863361F760E3CE011A
:100C900001960E94A3099FEF891A990A88E1881694
:100CA000910499F60E94CD097894EC960FB6F894C9
:100CB000DEBF0FBECDBFDF91CF911F910F91FF908F
:100CC000EF90CF90BF90AF909F908F900895CF936B
:100CD000DF93CDB7DEB7E3970FB6F894DEBF0FBE54
:100CE000CDBF81E090E00E94E7130E94250481E0DF
:100CF00090E00E94E71399A388A30E94E90B81E08A
:100D000090E00E94E7139B8F8A8F0E94E90B20904E
:100D10002C0230902D0240902E0280912F02909153
:100D20003002A09131028EA79FA7A8AB0E94580461
:100D30008AB18D8B8D8980648AB98BB18D8B8D89B9
:100D40008F7B8BB98BE090E00E94E7139AA789A76D
:100D500048E261E00E94DC0F8BE090E00E94E71324
:100D60009CA78BA748E263E00E94DC0F8BE090E039
:100D70000E94E7139D8F8C8F4BE267E00E94DC0F8F
:100D800085E090E00E94E7139AAB89AB64E60E948D
:100D9000E2048FE090E00E94E7139F8F8E8F25E2A0
:100DA00044E063E00E94F5048BEA90E00E94E713C0
:100DB0008BA39CA320E030E04AE851E06E8D7F8D4C
:100DC0000E944E108BEA90E00E94E7138DA39EA331
:100DD00024E230E04AE851E06E8D7F8D0E944E1093
:100DE00042E0FE0131963F01BF018BA19CA10E9410
:100DF0007312798E688E10E04301F4010190002097
:100E0000E9F73197E819F909888D998D86199709BD
:100E10008E179F0798F4E88DF98D6191F98FE88F0F
:100E2000C42C51013CEFE32EF12C00E0212F40E0D7
:100E30008A8D9B8D0E94E605105FDFCF42E0B401F2
:100E40008DA19EA10E947312430110E0CE01019674
:100E50009F8B8E8BEE89FF8901900020E9F73197F7
:100E60008E899F89E81BF90BC401861997098E1793
:100E70009F0780F4F40161914F01C42C5101EEA44D
:100E8000FFA408A9212F44E28A8D9B8D0E94E605CC
:100E9000105FE0CF8EE490E00E94E713998F888F77
:100EA00068A179A10E94750D888D998D0E949E0D73
:100EB000082FDBA05CA012E018A61FA2CE010196AD
:100EC0009F8B8E8B888D998D0E949E0D8AA30130F9
:100ED00009F0C7C08111D5C0888D998D0E94980DE9
:100EE000182F888D998D0E949B0D412FBE016F5F39
:100EF0007F4F811154C08BA19CA10E9473124301AA
:100F0000D12CEE89FF8901900020E9F731978E8975
:100F10009F89E81BF90BC401861997098E179F0753
:100F200090F4F40161914F01C42C51012CEFE22E99
:100F3000F12C00E02D2D40E08A8D9B8D0E94E6056E
:100F4000F0E1DF0EDECF412FBE016F5F7F4F8DA13D
:100F50009EA10E9473124301D12CEE89FF8901905A
:100F60000020E9F731978E899F89E81BF90BC401AE
:100F7000861997098E179F0708F064C0F4016191E4
:100F80004F01C42C5101EEA4FFA408A92D2D44E269
:100F90008A8D9B8D0E94E605F0E1DF0EDECF8BA1EE
:100FA0009CA10E9473124301D12CEE89FF8901900C
:100FB0000020E9F731978E899F89E81BF90BC4015E
:100FC000861997098E179F0788F4F40161914F01E4
:100FD000C42C5101EEA4FFA408A92D2D40E08A8D58
:100FE0009B8D0E94E605F0E1DF0EDFCF412FBE01B1
:100FF0006F5F7F4F8DA19EA10E9473124301D12C80
:10100000EE89FF8901900020E9F731978E899F8949
:10101000E81BF90BC401861997098E179F07A8F4DE
:10102000F40161914F01C42C51019CEFE92EF12C88
:1010300000E02D2D44E28A8D9B8D0E94E605F0E1B3
:10104000DF0EDECFDBA05CA002C0DDA05EA0888D3D
:10105000998D0E94950D682F8D2D952D0E948211DE
:1010600091C02AA1213081F4011114C028A139A115
:101070004C8D5D8D6E8D7F8D888D998D0E94940F26
:1010800081C08AA1813031F08AA1882371F081303A
:1010900009F078C028A139A14C8D5D8D6E8D7F8DB2
:1010A000888D998D0E94A40D6DC08C8D9D8D0E94A0
:1010B00038108823B1F08C8D9D8D0E9440108230B5
:1010C00059F08C8D9D8D0E944010813029F461E093
:1010D000888D998D0E94A10D8C8D9D8D0E9443104D
:1010E00051C08E8D9F8D0E94C705882309F44AC088
:1010F000612F8D2D952D0E94A5108E8D9F8D0E94A4
:10110000D205612F8D2D952D0E945D11698B7A8BF3
:101110008B8B9C8B69897A898B899C890E9483043B
:10112000412FBE016F5F7F4F8D2D952D0E94731251
:101130008D2D952D0E94A7128BAB43011DA6EE8924
:10114000FF8901900020E9F731978E899F89E81B7C
:10115000F90BC401861997098E179F0798F4F401BB
:1011600061914F01C42C51018CEFE82EF12C00E06D
:101170002DA54BA98A8D9B8D0E94E605FDA5F05FEC
:10118000FDA7DDCF89A59AA50E943810882389F193
:1011900089A59AA50E944010612F823099F48D2D67
:1011A000952D0E945D11698B7A8B8B8B9C8B698945
:1011B0007A898B899C890E9483048BB18D8B8D8960
:1011C000806412C08D2D952D0E943811698B7A8B09
:1011D0008B8B9C8B69897A898B899C890E9483047B
:1011E0008BB18D8B8D898F7B8BB989A59AA50E9438
:1011F00043108BA59CA50E943810882301F18BA574
:101200009CA50E944010823019F46EE372E002C087
:1012100069E472E0CE0101960E94E3158BA59CA5BE
:101220000E94431040E069E088A199A10E948D0CC2
:10123000BE016F5F7F4F88A199A10E943F0C89A9D1
:101240009AA90E94EC04811102C00AA13BCE4AE097
:1012500069E08A8D9B8D0E948D0C8FA098A42FEF42
:10126000821A920A88A58F939FA19F93E4E5F2E0EA
:10127000FF93EF93809107018F93809106018F93E5
:101280000E94EA150F900F900F900F900F900F9003
:1012900098A68FA2DACF08950E946706CF93DF93B6
:1012A0001F92CDB7DEB78BB1898389818E7F898309
:1012B00089818BB980EA90E00E945704898181601E
:1012C000898389818BB96DE070E080E090E00E94B5
:1012D000EC030F90DF91CF910895CF93DF9300D06F
:1012E000CDB7DEB79BB19A839A81998328E030E02D
:1012F000998187FF02C0986001C0977F9983998187
:101300009BB9998194609BB999819BB9880F2150B1
:10131000310971F78A818BB90F900F90DF91CF91CE
:101320000895CF93DF931F92CDB7DEB79BB199831A
:1013300099819D7D998399819BB90E946D090F9038
:10134000DF91CF910895CF92DF92EF92FF920F93AA
:101350001F93CF93DF931F92CDB7DEB76C018BB194
:101360008983898182608BB98601E62EF12CC801C0
:101370008C199D098E159F0534F4F80181918F0118
:101380000E946D09F4CF0F90DF91CF911F910F91C3
:10139000FF90EF90DF90CF9008958BB1807D8162B8
:1013A0008BB90895F89489E20E9491090E94CD09B1
:1013B00078940895F89481E10E9491090E94CD09E2
:1013C00078940895CF93DF931F92CDB7DEB780E670
:1013D0008983F89486E30E94910961E0CE01019629
:1013E0000E94A3090E94CD098AE30E94910986E028
:1013F000898361E0CE0101960E94A3090E94CD0974
:1014000078940F90DF91CF910895EF92FF920F9310
:101410001F93CF93DF93CDB7DEB7A4970FB6F894A1
:10142000DEBF0FBECDBF082F809126031CE0819F39
:10143000102D112480912803880F880F880FF894AD
:1014400019828A831B82895F8C838AE20E949109B8
:1014500064E0CE0101960E94A3090E94CD09198281
:101460001A831B82155F1C838BE20E94910964E042
:10147000CE0101960E94A3090E94CD09BE01675EBC
:101480007F4F802F0E9453038CE20E9491098E01AE
:10149000075E1F4F7E0185E2E80EF11CF801919175
:1014A0008F0120912D0330912E0340912F035091F5
:1014B0002A0360912B0370912C03FE01319683E087
:1014C00090FF04C020833183428303C05083618333
:1014D000728396958D5F33968B3191F768E1CE01DB
:1014E00001960E94A3090E151F05C1F60E94CD09A1
:1014F000809128039091290301968431910529F068
:10150000909329038093280315C010922903109209
:101510002803809126039091270301968A30910534
:1015200029F0909327038093260304C01092270389
:10153000109226037894A4960FB6F894DEBF0FBEDF
:10154000CDBFDF91CF911F910F91FF90EF90089544
:101550006F927F928F929F92AF92CF92DF92EF9293
:10156000FF920F931F93CF93DF93CDB7DEB7A4976E
:101570000FB6F894DEBF0FBECDBF762EF42E122F1D
:10158000442359F0109126038CE0189F102D11244C
:1015900000912803000F000F000FF89419820A83AE
:1015A0001B82095F0C838AE20E94910964E0CE01EC
:1015B00001960E94A3090E94CD0919821A831B82F9
:1015C000155F1C838BE20E94910964E0CE010196B5
:1015D0000E94A3090E94CD09BE01675E7F4F872D3F
:1015E0000E9453038CE20E9491098E01075E1F4FF7
:1015F0003E0185E2680E711CF80191918F01FE0198
:10160000319683E090FF04C0C082D182E28203C0A1
:1016100080829182A28296958D5F33968B3191F76D
:1016200068E1CE0101960E94A3090615170521F76E
:101630000E94CD09FF2011F1809128039091290388
:1016400001968431910529F0909329038093280312
:1016500015C01092290310922803809126039091BF
:10166000270301968A30910529F0909327038093F0
:10167000260304C010922703109226037894A496A0
:101680000FB6F894DEBF0FBECDBFDF91CF911F9193
:101690000F91FF90EF90DF90CF90AF909F908F9041
:1016A0007F906F9008958F929F92AF92CF92DF922A
:1016B000EF920F9380902A0390902B03A0902C031D
:1016C000C0902D03D0902E03E0902F030E94A80A13
:1016D0000F91EF90DF90CF90AF909F908F900895F3
:1016E0006F927F928F92EF92FF920F931F93CF93FF
:1016F000DF93CDB7DEB727970FB6F894DEBF0FBEE6
:10170000CDBF60902A0370902B0380902C03109221
:101710002A038CEF80932B0310922C03F8941982E8
:101720001A821B8280EA8C838AE20E94910964E01B
:10173000CE0101960E94A3090E94CD0919821A8246
:101740001B8280E88C838BE20E94910964E0CE01C9
:1017500001960E94A3090E94CD0980912A038D83DE
:1017600080912B038E8380912C038F838CE20E94C7
:10177000910900E810E080EAE82EF12C63E0CE0148
:1017800005960E94A30981E0E81AF108B9F7015013
:10179000110989F77894109227031092260310926A
:1017A00029031092280360922A0370922B038092DF
:1017B0002C0327960FB6F894DEBF0FBECDBFDF9186
:1017C000CF911F910F91FF90EF908F907F906F902E
:1017D00008950F931F93CF93DF931F92CDB7DEB77A
:1017E00020912503211145C08C018AB1898389810B
:1017F0008F62898389818AB98BB189838981807D50
:10180000898389818162898389818BB98CEF8093F7
:101810002D0380932E0380932F0310922A0310929E
:101820002B0310922C03109229031092280310927C
:10183000270310922603C8010E944E09C8010E9486
:10184000E2096CE070E080E090E00E94EC03C801E7
:101850000E94DA096CE070E080E090E00E94EC0306
:10186000C8010E94D209C8010E94700B81E08093D8
:1018700025030F90DF91CF911F910F910895EF9263
:10188000FF920F93CF93DF937C01EB016991662365
:1018900049F0009128032091260341E0C7010E94EE
:1018A000530BF4CFDF91CF910F91FF90EF900895FC
:1018B0002F923F924F926F927F928F929F92AF9210
:1018C000CF92DF92EF920F93CF93DF933C011901F8
:1018D000442EEB016991662389F080902A03909051
:1018E0002B03A0902C03E42C61010091280320918C
:1018F000260341E0C3010E94A80AECCFDF91CF91FB
:101900000F91EF90DF90CF90AF909F908F907F904E
:101910006F904F903F902F900895E6E2F3E070E0D3
:101920007183608350E05383428308950E94050AC7
:1019300080E090E00895FB01DC01480F591FA417D7
:10194000B50719F021912D93FACF08955F926F9208
:101950007F928F929F92AF92BF92CF92DF92EF923F
:10196000FF920F931F93CF93DF93CDB7DEB76097AE
:101970000FB6F894DEBF0FBECDBF8C016B017C01AA
:101980008DE4E80EF11CD7011C92612C512C5BE018
:10199000752E6DE5862E62E0962EFE0131965F0172
:1019A000D7018C91863009F488C0F801789EE00D4B
:1019B000F11D112446856485C6010E948D0C20917D
:1019C00016013091170140911801F7018081F8014B
:1019D000789EE00DF11D112460897189C6010E9475
:1019E000580CD7018C91F801789EE00DF11D11245F
:1019F00044896289C6010E948D0CF7018081823082
:101A000029F170F48823D1F0813009F046C0D80163
:101A10001196EC91F0E0EE0FFF1FEA5CFE4F3BC029
:101A2000843031F1E0F08530C1F5D8011396EC91A6
:101A3000F0E0EE0FFF1FEE5DFE4F2DC0D801EC91E0
:101A4000F0E0EE0FFF1FE45DFE4F25C0D8011296B7
:101A5000EC91F0E0EE0FFF1FEA5DFE4F1CC0D801D5
:101A60001596EC91F0E0EE0FFF1FE45EFE4F13C001
:101A7000F80186811F928F939F928F92BF92AF92AF
:101A80000E94FC150F900F900F900F900F900F90E9
:101A90006A2C5B2C02C0608051802091160130912D
:101AA000170140911801662D752DC6010E94580C32
:101AB000F70180818F5F808373CFD7011C9260967E
:101AC0000FB6F894DEBF0FBECDBFDF91CF911F914F
:101AD0000F91FF90EF90DF90CF90BF90AF909F90CD
:101AE0008F907F906F905F9008950F931F93CF9387
:101AF000DF93EC018B0181E0888382E089831A8285
:101B00001B821C821D8282E18E8342E450E068E4E5
:101B100071E0CE010B960E949B0CB801CE01DF91C3
:101B2000CF911F910F910C94A60CFC018081089518
:101B3000FC0181810895FC0182810895FC0184816A
:101B40000895FC01648308954F925F926F927F9293
:101B5000AF92BF92CF92DF92EF92FF920F931F93BB
:101B6000CF93DF93CDB7DEB760970FB6F894DEBFA3
:101B70000FBECDBF8C017B016A015901CA010E94D1
:101B80003810882309F4A4C0C6010E944010823096
:101B900069F40E940104D80117966D937D938D938B
:101BA0009C931A97C6010E94431092C0C6010E94DE
:101BB0004010813009F08CC00E940104F801478078
:101BC0005084618472849B01AC0124193509460953
:101BD000570929013A01C6010E944310A801435B3D
:101BE0005F4F6A0159EC451651046104710440F1DC
:101BF000D6018C917BE0772EF801789EE00DF11DE7
:101C0000112446856485C5010E948D0C2091160122
:101C10003091170140911801F6018081F801789EFA
:101C2000E00DF11D112460897189C5010E94580CD5
:101C3000D80114961C9264E0C7010E94E1055FC1BF
:101C4000F60180816BE0762EF801789EE00DF11DA3
:101C5000112446856485C5010E948D0C20911601D2
:101C60003091170140911801D6018C91F801789EAE
:101C7000E00DF11D112460897189C5010E94580C85
:101C8000F60180818F5F863011F0808301C0108261
:101C9000F60180815BE0752EF801789EE00DF11D64
:101CA000112446856485C5010E948D0C209119017F
:101CB00030911A0140911B01D6018C91F801789E58
:101CC000E00DF11D112460897189C5010E94580C35
:101CD000C7010E94C705882309F411C16801BDE44A
:101CE000CB0ED11CF6018081823009F458C028F453
:101CF000882361F0813071F1E5C0843009F493C02C
:101D000008F46FC0853009F4C3C0DCC0C7010E946D
:101D1000CF05813041F4D8018C918F5F853069F413
:101D2000F80110820FC0C7010E94CF05823051F424
:101D3000D8018C91811103C084E08C9303C0815041
:101D4000F8018083D801EC91F0E0EE0FFF1FE45D15
:101D5000FE4F22C0C7010E94CF05813039F4F8013F
:101D600081818F5F893061F411820EC0C7010E94AA
:101D7000CF05823049F4F8018181811103C088E0E8
:101D8000818302C081508183D8011196EC91F0E0EB
:101D9000EE0FFF1FEA5CFE4F7080618095C0C701A7
:101DA0000E94CF05813039F4F80182818F5F833042
:101DB00059F412820DC0C7010E94CF05823041F450
:101DC000F8019281911102C0828302C091509283E6
:101DD000D8011296EC91F0E0EE0FFF1FEA5DFE4F86
:101DE000DBCFC7010E94CF05813039F4F80185812E
:101DF0008F5F833059F415820DC0C7010E94CF0553
:101E0000823041F4F8019581911102C0858302C0AE
:101E100091509583D8011596EC91F0E0EE0FFF1FDD
:101E2000E45EFE4FB9CFC7010E94CF05813039F47F
:101E3000F80186818F5F8A3160F089E10DC0C701AA
:101E40000E94CF05823059F4F80186818150853097
:101E500010F0868304C085E0D80116968C93F801B3
:101E600086811F928F9380E692E09F938F939E01CD
:101E70002F5F3F4F29013F932F930E94FC150F9036
:101E80000F900F900F900F900F90742C652C1CC02A
:101E9000C7010E94CF05882361F0D80113968C9169
:101EA0001397811104C081E013968C9302C0F8014E
:101EB0001382D8011396EC91F0E0EE0FFF1FEE5D58
:101EC000FE4F6ACF712C612CC7010E94D205F6012A
:101ED0008081F8012BE0829FE00DF11D11244489DF
:101EE0006289C5010E948D0C209116013091170165
:101EF00040911801672D762DC5010E94580C6096FF
:101F00000FB6F894DEBF0FBECDBFDF91CF911F910A
:101F10000F91FF90EF90DF90CF90BF90AF907F90A8
:101F20006F905F904F9008958F929F92AF92BF9263
:101F3000DF92EF92FF920F931F93CF93DF93EC0109
:101F40007B014A0189015C018DE4A80EB11CF501F9
:101F500080819BE0D92EFE01D89EE00DF11D112459
:101F600046856485C9010E948D0C2091190130912C
:101F70001A0140911B01F5018081FE01D89EE00D00
:101F8000F11D112460897189C8010E94580C61E01B
:101F9000C7010E94E1059801A401B701CE01DF91BC
:101FA000CF911F910F91FF90EF90DF90BF90AF9076
:101FB0009F908F900C94A40DFC0189ED92E0918389
:101FC000808381E090E0062E01C0880F0A94EAF732
:101FD000A42FB0E0B483A3839D012250310936833E
:101FE00025831197B087A78362839C91282F209522
:101FF00092239C93A381B4819C91982B9C93A5815F
:10200000B6819C91892311F0118602C082E08187FC
:102010001286CF010C940A04FC01A581B6812C9193
:1020200081E090E0028002C0880F991F0A94E2F7D5
:1020300082239185913051F028F0923061F09330F5
:1020400079F00895811111C081E008C081110DC09F
:1020500082E0818709C0882341F083E08187089569
:10206000882319F0118681E0828708950C940C1062
:1020700021E0FC018285811101C020E0822F0895BA
:10208000FC0182850895FC0112860895FC0191856A
:10209000925081E0923008F080E00895CF92DF9274
:1020A000EF92FF92CF93FA01DC014E555F4FC08053
:1020B000D180E280F380CD92DD92ED92FC92139775
:1020C000C480D580E680F7801496CD92DD92ED92A3
:1020D000FC921797C0851896CC931897C184D28428
:1020E000E384F4841996CD92DD92ED92FC921C97D4
:1020F000C584D684E784F0881D96CD92DD92ED925A
:10210000FC925097C1895196CC93519772965296F2
:10211000E417F50761F6FC01E955FF4F7183608311
:10212000359744E650E060E070E04083518362837D
:102130007383349641E04083339631832083CF917B
:10214000FF90EF90DF90CF9008958F929F92AF9283
:10215000BF92CF92DF92EF92FF921F93CF93DF93C4
:10216000EC01162F7C0127EAE20EF11CF7018081B9
:1021700091810E94C705882309F46EC0F701808110
:1021800091810E94CF05823091F5FE01EE55FF4FFF
:1021900080809180A280B380F701808191810E942C
:1021A000DB05DC011196A50194010E94AB14FE0130
:1021B00022E1129FE00DF11D1124C080D180E28048
:1021C000F380C61AD70AE80AF90AC082D182E282ED
:1021D000F382EF01C184D284E384F484A7019601E1
:1021E000261B370B480B590BDA01C90131C081306E
:1021F00099F5FE01EE55FF4F80809180A280B3805B
:10220000F701808191810E94D505DC011196A5011D
:1022100094010E94AB14FE0122E1129FE00DF11D1A
:102220001124C080D180E280F380C60ED71EE81E44
:10223000F91EC082D182E282F382EF01C184D2848E
:10224000E384F484DC01CB018C0D9D1DAE1DBF1D0C
:1022500089879A87AB87BC87DF91CF911F91FF90C9
:10226000EF90DF90CF90BF90AF909F908F900895A8
:102270000F931F93FC0102E1609FE00DF11D1124FB
:1022800080819181A281B38144815581668177816A
:102290008C019D01040F151F261F371FC901B801AE
:1022A000208530E040E050E00E947E14CA01B90170
:1022B0000E94DC121F910F9108950F931F93FC0150
:1022C00002E1609FE00DF11D112481859285A385B7
:1022D000B48545855685678570898C019D01040FFD
:1022E000151F261F371FC901B801218930E040E0C2
:1022F00050E00E947E14CA01B9010E94DC121F91B5
:102300000F910895FC01EA55FF4F6083DC01AE5543
:10231000BF4F84E0689FF0011124E552FD4F4081DA
:102320005181628173814D935D936D937C9313977B
:102330000895CF92DF92EF92FF92CF93DF936A01DD
:102340007B01E901CB01BA0120E031EE45EF55E018
:102350000E947E1480E3820F888360E071EE85EF37
:1023600095E00E946E14C61AD70AE80AF90AC70156
:10237000B60120E836E948E950E00E947E1480E387
:10238000820F898360E876E988E990E00E946E1404
:10239000C61AD70AE80AF90AC701B60120E432E4EE
:1023A0004FE050E00E947E1480E3820F8A8360E455
:1023B00072E48FE090E00E946E14C61AD70AE80A11
:1023C000F90AC701B60120EA36E841E050E00E9470
:1023D0007E1480E3820F8B8360EA76E881E090E0F0
:1023E0000E946E14C61AD70AE80AF90AC701B60194
:1023F00020E137E240E050E00E947E1480E3820F4B
:102400008C83A0E1B7E20E94A014C61AD70AE80A9A
:10241000F90AC701B60128EE33E040E050E00E941F
:102420007E1480E3820F8D83A8EEB3E00E94A01497
:10243000C61AD70AE80AF90AC701B60124E630E04D
:1024400040E050E00E947E1480E3820F8E83A4E679
:10245000B0E00E94A014C61AD70AE80AF90AC70118
:10246000B6012AE030E040E050E00E947E1480E3B4
:10247000820F8F83AAE0B0E00E94A014A70196010A
:10248000261B370B480B590BDA01C901805D888781
:102490001986DF91CF91FF90EF90DF90CF90089554
:1024A000FA01DB0180E090E020E030E05EE22115FF
:1024B000310559F08330910519F08630910511F4FA
:1024C000508331962C91208304C04C91403321F0ED
:1024D0004083319621E030E00196119689309105D4
:1024E00031F710820895EF92FF920F931F93CF93CD
:1024F000DF93CDB7DEB760970FB6F894DEBF0FBE9F
:10250000CDBF8C017B01FC0182E1489FE00DF11DF4
:10251000112441855285638574859E012F5F3F4F4D
:10252000C8010E949911A701BE016F5F7F4FC801CA
:102530000E94501260960FB6F894DEBF0FBECDBF5A
:10254000DF91CF911F910F91FF90EF9008958755E4
:102550009F4FFC018081918108950E94211388F092
:102560009F5798F0B92F9927B751B0F0E1F0660F57
:10257000771F881F991F1AF0BA95C9F714C0B13098
:1025800091F00E943B13B1E008950C943B13672F28
:10259000782F8827B85F39F0B93FCCF386957795C7
:1025A0006795B395D9F73EF49095809570956195B0
:1025B0007F4F8F4F9F4F0895E89409C097FB3EF4DB
:1025C00090958095709561957F4F8F4F9F4F992380
:1025D000A9F0F92F96E9BB279395F69587957795FE
:1025E0006795B795F111F8CFFAF4BB0F11F460FFBE
:1025F0001BC06F5F7F4F8F4F9F4F16C0882311F016
:1026000096E911C0772321F09EE8872F762F05C029
:10261000662371F096E8862F70E060E02AF09A95C4
:10262000660F771F881FDAF7880F9695879597F9B9
:10263000089557FD9058440F551F59F05F3F71F0B2
:102640004795880F97FB991F61F09F3F79F0879519
:102650000895121613061406551FF2CF4695F1DFA2
:1026600008C0161617061806991FF1CF8695710532
:10267000610508940895E894BB2766277727CB0166
:1026800097F908950E9455130C94C6130E94B8132D
:1026900038F00E94BF1320F0952311F00C94AF1373
:1026A0000C94B51311240C943C130E94191370F36D
:1026B000959FC1F3950F50E0551F629FF001729FE7
:1026C000BB27F00DB11D639FAA27F00DB11DAA1FF6
:1026D000649F6627B00DA11D661F829F2227B00D43
:1026E000A11D621F739FB00DA11D621F839FA00DCE
:1026F000611D221F749F3327A00D611D231F849F1E
:10270000600D211D822F762F6A2F11249F57504074
:102710009AF0F1F088234AF0EE0FFF1FBB1F661FEF
:10272000771F881F91505040A9F79E3F510580F0B8
:102730000C94AF130C943C135F3FE4F3983ED4F336
:10274000869577956795B795F795E7959F5FC1F75C
:10275000FE2B880F911D9695879597F9089597F907
:102760009F6780E870E060E008959FEF80EC089537
:1027700000240A9416161706180609060895002460
:102780000A9412161306140605060895092E0394DA
:10279000000C11F4882352F0BB0F40F4BF2B11F44E
:1027A00060FF04C06F5F7F4F8F4F9F4F0895089564
:1027B0000E9433140E94D7130E944B09C0E0D0E05E
:1027C0000E944C092097E1F30E940000F9CF0C947D
:1027D000C2141F920F920FB60F9211242F933F93A2
:1027E0008F939F93AF93BF93809131039091320366
:1027F000A0913303B09134033091300323E0230FD1
:102800002D3720F40196A11DB11D05C026E8230F28
:102810000296A11DB11D2093300380933103909344
:102820003203A0933303B093340380913503909126
:102830003603A0913703B09138030196A11DB11D55
:102840008093350390933603A0933703B0933803F6
:10285000BF91AF919F918F913F912F910F900FBE9C
:102860000F901F901895789484B5826084BD84B5CC
:10287000816084BD85B5826085BD85B5816085BD7B
:10288000EEE6F0E0808181608083E1E8F0E0108294
:10289000808182608083808181608083E0E8F0E0D5
:1028A000808181608083E1EBF0E0808184608083BF
:1028B000E0EBF0E0808181608083EAE7F0E08081F6
:1028C0008460808380818260808380818160808356
:1028D0008081806880831092C1000895DB018F930E
:1028E0009F930E94A014BF91AF91A29F800D911D54
:1028F000A39F900DB29F900D11240895A1E21A2E6E
:10290000AA1BBB1BFD010DC0AA1FBB1FEE1FFF1F93
:10291000A217B307E407F50720F0A21BB30BE40BE3
:10292000F50B661F771F881F991F1A9469F760952A
:102930007095809590959B01AC01BD01CF010895E4
:102940000E94B314A59F900DB49F900DA49F800D7D
:10295000911D11240895B7FF0C94A0140E94A01497
:10296000821B930B0895A29FB001B39FC001A39F48
:10297000700D811D1124911DB29F700D811D1124B8
:10298000911D08950F931F93CF93DF93823091058C
:1029900010F482E090E0E0913B03F0913C0320E0F2
:1029A00030E0A0E0B0E0309719F140815181028120
:1029B000138148175907C8F08417950769F41097D1
:1029C00031F012960C93129713961C9327C0009324
:1029D0003B0310933C0322C02115310519F0421727
:1029E000530718F49A01BD01EF01DF01F801DBCFB5
:1029F00021153105F9F0281B390B2430310580F4FD
:102A00008A819B816115710521F0FB01938382838B
:102A100004C090933C0380933B03FE01329644C074
:102A2000FE01E20FF31F8193919322503109398304
:102A300028833AC02091390330913A03232B41F483
:102A4000209102013091030130933A03209339031E
:102A500020910001309101012115310541F42DB77C
:102A60003EB74091040150910501241B350BE091C4
:102A70003903F0913A03E217F307A0F42E1B3F0B42
:102A80002817390778F0AC014E5F5F4F24173507E0
:102A900048F04E0F5F1F50933A03409339038193E0
:102AA000919302C0E0E0F0E0CF01DF91CF911F9160
:102AB0000F910895CF93DF93009709F481C0FC0133
:102AC000329713821282A0913B03B0913C0310977E
:102AD00081F420813181820F931F2091390330913D
:102AE0003A032817390751F5F0933A03E093390375
:102AF00067C0ED0120E030E0CE17DF0740F44A81E7
:102B00005B819E0141155105F1F0EA01F5CFD383B8
:102B1000C28340815181840F951FC817D90759F48A
:102B200088819981840F951F0296918380838A8181
:102B30009B81938382832115310529F4F0933C0313
:102B4000E0933B033DC0E901FB83EA83499159913E
:102B5000C40FD51FEC17FD0761F480819181840FAC
:102B6000951F0296E90199838883828193819B83D3
:102B70008A83E0E0F0E012968D919C911397009784
:102B800019F0FD01DC01F7CF8D919C9111979D010A
:102B90002E5F3F4F820F931F2091390330913A03EC
:102BA0002817390769F4309729F410923C031092E2
:102BB0003B0302C013821282B0933A03A0933903FD
:102BC000DF91CF910895FB01DC0101900D9200206F
:102BD000E1F70895A0E0B0E0E0EFF5E10C94BF1854
:102BE000AE01475F5F4F6F8178858D819E810E9426
:102BF0001E16E2E00C94DB18AEE0B0E0E2E0F6E195
:102C00000C94BD180D891E8986E08C831A83098374
:102C10008FEF9FE79E838D83AE01475E5F4F6F8985
:102C2000788DCE0101960E941E16EF81F885E00F87
:102C3000F11F10822E96E4E00C94D918ABE0B0E0BE
:102C4000E4E2F6E10C94AF186C017B018A01FC010F
:102C500017821682838181FFCCC1CE0101963C018F
:102C6000F6019381F70193FD859193FF81917F0197
:102C7000882309F4BAC1853239F493FD859193FF15
:102C800081917F01853229F4B60190E00E941518E8
:102C9000E7CF912C212C312CFFE1F315D8F08B32AA
:102CA00079F038F4803279F08332A1F4232D206159
:102CB0001DC08D3261F0803369F4232D216016C070
:102CC000832D8260382EE32DE4603E2E2AC0F32D42
:102CD000F8601DC037FC2DC020ED280F2A3040F0D1
:102CE0008E32B9F436FC81C1232D2064322E19C0F6
:102CF00036FE06C08AE0989E200D1124922E11C047
:102D0000EAE02E9E200D1124222EF32DF0623F2E9C
:102D100008C08C3621F4832D8068382E02C0883696
:102D200041F4F70193FD859193FF81917F0181111A
:102D3000B3CF982F9F7D9554933028F40C5F1F4F8D
:102D40009FE399830DC0833631F0833771F083356B
:102D500009F059C021C0F801808189830E5F1F4F9F
:102D600088248394912C530113C02801F2E04F0E64
:102D7000511CF801A080B18036FE03C0692D70E0BF
:102D800002C06FEF7FEFC5010E940A184C0182015B
:102D9000F32DFF773F2E16C0280122E0420E511C72
:102DA000F801A080B18036FE03C0692D70E002C03A
:102DB0006FEF7FEFC5010E94FF174C01F32DF06804
:102DC0003F2E820133FC1BC0822D90E088169906AD
:102DD000B0F4B60180E290E00E9415182A94F4CF76
:102DE000F50137FC859137FE81915F01B60190E0D6
:102DF0000E94151821102A9421E0821A910881144A
:102E0000910471F7E8C0843611F0893641F5F80174
:102E100037FE07C060817181828193810C5F1F4FF3
:102E200008C060817181072E000C880B990B0E5F22
:102E30001F4FF32DFF763F2E97FF09C09095809589
:102E4000709561957F4F8F4F9F4FF0683F2E2AE01E
:102E500030E0A3010E945118882E861845C085379E
:102E600031F4232D2F7EB22E2AE030E025C0932DA1
:102E7000997FB92E8F36C1F018F4883579F0B5C036
:102E8000803719F0883721F0B0C0E92FE061BE2EFD
:102E9000B4FE0DC0FB2DF460BF2E09C034FE0AC085
:102EA000292F2660B22E06C028E030E005C020E1C0
:102EB00030E002C020E132E0F801B7FE07C06081D7
:102EC0007181828193810C5F1F4F06C06081718187
:102ED00080E090E00E5F1F4FA3010E945118882EE2
:102EE0008618FB2DFF773F2E36FE0DC0232D2E7F3B
:102EF000A22E891458F434FE0BC032FC09C0832D75
:102F00008E7EA82E05C0B82CA32C03C0B82C01C0FF
:102F1000B92CA4FE0FC0FE01E80DF11D80818033A5
:102F200021F49A2D997EA92E09C0A2FE06C0B39461
:102F3000B39404C08A2D867809F0B394A3FC11C021
:102F4000A0FE06C0B21488F4280C922C9B180EC068
:102F5000B21460F4B60180E290E00E941518B394B8
:102F6000F7CFB21418F42B1802C0982C212CA4FE11
:102F700010C0B60180E390E00E941518A2FE17C0B1
:102F8000A1FC03C088E790E002C088E590E0B601AC
:102F90000CC08A2D867859F0A1FE02C08BE201C0D8
:102FA00080E2A7FC8DE2B60190E00E94151889141A
:102FB00038F4B60180E390E00E9415189A94F7CF98
:102FC0008A94F301E80DF11D8081B60190E00E9422
:102FD00015188110F5CF222009F442CEB60180E207
:102FE00090E00E9415182A94F6CFF6018681978109
:102FF00002C08FEF9FEF2B96E2E10C94CB18FC01FF
:103000000590615070400110D8F7809590958E0F13
:103010009F1F0895FC016150704001900110D8F786
:10302000809590958E0F9F1F08950F931F93CF93B8
:10303000DF93FB01238121FD03C08FEF9FEF2CC0A5
:1030400022FF16C0468157812481358142175307DC
:1030500044F4A081B1819D012F5F3F4F31832083D4
:103060008C93268137812F5F3F4F3783268314C08F
:103070008B01EC01FB010084F185E02D0995892B82
:10308000E1F6D80116968D919C91179701961796A7
:103090009C938E931697CE01DF91CF911F910F9144
:1030A0000895FA01AA27283051F1203181F1E894DE
:1030B0006F936E7F6E5F7F4F8F4F9F4FAF4FB1E02B
:1030C0003ED0B4E03CD0670F781F891F9A1FA11D26
:1030D000680F791F8A1F911DA11D6A0F711D811D27
:1030E000911DA11D20D009F468943F912AE0269FEC
:1030F00011243019305D3193DEF6CF010895462F4B
:103100004770405D4193B3E00FD0C9F7F6CF462F2B
:103110004F70405D4A3318F0495D31FD4052419394
:1031200002D0A9F7EACFB4E0A69597958795779551
:103130006795BA95C9F700976105710508959B01D8
:10314000AC010A2E06945795479537952795BA9561
:10315000C9F7620F731F841F951FA01D08952F923A
:103160003F924F925F926F927F928F929F92AF9217
:10317000BF92CF92DF92EF92FF920F931F93CF9364
:10318000DF93CDB7DEB7CA1BDB0B0FB6F894DEBFFB
:103190000FBECDBF09942A88398848885F846E8421
:1031A0007D848C849B84AA84B984C884DF80EE806B
:1031B000FD800C811B81AA81B981CE0FD11D0FB674
:1031C000F894DEBF0FBECDBFED010895F894FFCF98
:1031D00000003D0320000801000000020000000084
:1031E000960C00000000FCFCFCFC0000640267027E
:1031F0006A026D027102750279027D028102850206
:1032000089028D029102950299029D02A102A502F6
:10321000A902AD02B10281020006000000B502065B
:103220000005000106000C00BB02060011000207A9
:10323000000000C102070004000307000700C602E7
:1032400007000A000407000E00CA0207001200056A
:1032500008000000CF020800050040771B000000B6
:1032600000000140771B000000000001E06735000E
:103270000000000001E06735000000000001C0CF41
:103280006A00F0D8FFFF01C0CF6A00000000000113
:1032900080969800000000000180969800000000D1
:1032A0000001809FD5000000000002809FD5000033
:1032B0000000000220B21301000000000220B2133F
:1032C000010000000002406F4001000000000340C8
:1032D0006F4001000000000390CA7B010000000065
:1032E0000390CA7B010000000003003FAB01000017
:1032F000000004003FAB010000000004FCFCFC7C6B
:103300007C7C00000000D60400000000C50544419C
:1033100053485F434C4F534500444153485F4F501F
:10332000454E2000506173732025640A0025640017
:10333000253269005354004247005044005258203F
:1033400000545820004120200042202000535020EB
:10335000003130200031303000314B200031304B13
:1033600000314D200031363000383020003430201C
:10337000003330200032302000313720003135203A
:10338000003132200053544550200042414E442029
:103390000056464F20004B59200053504420004D0A
:1033A0004F444520000000000036100A0000006471
:1033B000000000E803000010270000A08601004084
:0433C000420F0000B8
:00000001FF
