:100000000C9434000C9451000C9451000C94510049
:100010000C9451000C9451000C9451000C9451001C
:100020000C9451000C9451000C9451000C94F20368
:100030000C9451000C9451000C9451000C945100FC
:100040000C9469150C9451000C9451000C945100BF
:100050000C9451000C9451000C9451000C945100DC
:100060000C9451000C94510011241FBECFEFD8E026
:10007000DEBFCDBF13E0A0E0B1E0E0E6F5E302C0F3
:1000800005900D92A631B107D9F723E0A6E1B3E0C0
:1000900001C01D92A53CB207E1F70E9458150C94CF
:1000A000AE1A0C94000000000000000000000000E8
:1000B0000000000000000000000000000000000040
:1000C0000000000000000000000000000000000030
:1000D0000000000000000000000000000000000020
:1000E0000000000000000000000000000000000010
:1000F0000000000000000000000000000000000000
:1001000000000000000000000000000000000000EF
:1001100000000000000000000000000000000000DF
:1001200000000000000000000000000000000000CF
:1001300000000000000000000000000000000000BF
:1001400000000000000000000000000000000000AF
:10015000000000000000000000000000000000009F
:10016000000000000000000000000000000000008F
:10017000000000000000000000000000000000007F
:10018000000000000000000000000000000000006F
:10019000000000000000000000000000000000005F
:1001A000000000000000000000000000000000004F
:1001B000000000000000000000000000000000003F
:1001C000000000000000000000000000000000002F
:1001D000000000000000000000000000000000001F
:1001E000000000000000000000000000000000000F
:1001F00000000000000000000000000000000000FF
:1002000000000000000000000000000000000000EE
:1002100000000000000000000000000000000000DE
:1002200000000000000000000000000000000000CE
:100230000000000808080808080008000000001472
:1002400014140000000000000000000014143E140C
:100250003E14140000000000083C0A1C281E080080
:1002600000000000062610080432300000000000E4
:100270001C0202042A122C000000001808040000CE
:1002800000000000000020101008080808081010E6
:100290002000020404080808080804040200000002
:1002A00000082A1C2A080000000000000008083E80
:1002B00008080000000000000000000000181808F6
:1002C000040000000000003E0000000000000000EC
:1002D000000000000018180000002020101008087E
:1002E000040402020000001C22322A2622221C00E2
:1002F000000000080C080808080808000000001C9E
:100300002220100804023E000000001C22201820B9
:1003100020221C0000000010181814143E10380091
:100320000000003E02021E2020221C0000000018D7
:1003300004021E2222221C000000003E2220201067
:10034000100808000000001C22221C2222221C008F
:100350000000001C2222223C20100C0000000000A3
:1003600000181800001818000000000000181800FD
:10037000001818080400000000300C030C300000C6
:100380000000000000003E003E00000000000000F1
:1003900000030C300C0300000000001C2220100899
:1003A00008000800000000001C223A3A1A021C0053
:1003B00000000000081422223E222200000000005B
:1003C0001E22221E22221E00000000001C22020209
:1003D00002221C00000000000E12222222120E0037
:1003E000000000003E02021E02023E00000000006B
:1003F0003E02021E02020200000000001C22023225
:1004000022223C00000000002222223E2222220062
:10041000000000003E08080808083E000000000038
:100420003820202022221C000000000022120A0690
:100430000A122200000000000202020202023E0034
:100440000000000022362A2A22222200000000009A
:100450002226262A32322200000000001C222222FC
:1004600022221C00000000001E22221E02020200A6
:10047000000000001C22222222221C30000000006A
:100480001E22221E0A122200000000001C22021C52
:1004900020221C00000000003E0808080808080090
:1004A000000000002222222222221C000000000064
:1004B0002222221414080800000000002222222A0E
:1004C0002A362200000000002222140814222200F2
:1004D00000000000222214080808080000000000A4
:1004E0003E20100804023E000000380808080808F2
:1004F0000808080838000202040408081010202028
:1005000000000E0808080808080808080E0000087F
:1005100014220000000000000000000000000000A5
:100520000000003F0000000C081000000000000068
:100530000000000000003C2222322C0000000002DB
:1005400002021E2222221E000000000000003C02C7
:1005500002023C000000002020203C2222223C001D
:100560000000000000001C223E021C0000000038B9
:1005700004041E04040404000000000000003C22E7
:1005800022223C20201C000202021E2222222200E3
:100590000000000808000C0808081C0000000010FB
:1005A00010001C1010101010100E00020202120A8F
:1005B000060A12000000000C0808080808081C00C1
:1005C000000000000000162A2A2A22000000000075
:1005D00000001A26222222000000000000001C2237
:1005E00022221C000000000000001E2222221E0207
:1005F0000202000000003C2222223C2020200000B9
:1006000000001A06020202000000000000003C0286
:100610001C201E000000000808083E0808083000E2
:10062000000000000000222222322C000000000006
:100630000000361414080800000000000000222A00
:100640002A2A1400000000000000221408142200CE
:10065000000000000000222222223C20201C00007A
:1006600000003E1008043E0000002010101010088A
:1006700010101010200008080808080808080808CA
:100680000800020404040408040404040200000432
:100690002A100000000000000000000000080814FC
:1006A00014223E000000CF93DF939CE0899FE3E596
:1006B000F0E0EE0FFF1FE00DF11D8CE0EB019591D6
:1006C00099938A95E1F71124DF91CF9108950F93C3
:1006D0001F93CF93DF938091A3039091A403A091E4
:1006E000A503B091A6030196A11DB11D8093A3039C
:1006F0009093A403A093A503B093A60380919F03B6
:100700009091A003A091A103B091A203892B8A2B01
:100710008B2B99F080919F039091A003A091A1034E
:10072000B091A2030197A109B10980939F0390930F
:10073000A003A093A103B093A2030EE713E0C0E0CF
:10074000D0E0D8018D919D918D010097E1F09E013F
:10075000220F331FF901EA5CFC4F40815181415067
:10076000510951834083452B71F4D901AA5ABC4FDA
:100770002D913C9131832083DC01ED91FC9101901E
:10078000F081E02D09952196C031D105D1F606E71B
:1007900013E0C0E0D0E0F801808191810097B9F0CA
:1007A000FE01EE0FFF1FEA5EFC4F208131812150D8
:1007B000310931832083232B51F4DC01ED91FC912D
:1007C0000190F081E02D0995F801118210822196A7
:1007D0000E5F1F4FC430D105F1F6DF91CF911F910D
:1007E0000F9108951F920F920FB60F9211242F931D
:1007F0003F934F935F936F937F938F939F93AF93A9
:10080000BF93EF93FF930E946703FF91EF91BF9116
:10081000AF919F918F917F916F915F914F913F9198
:100820002F910F900FBE0F901F90189560939F030C
:100830007093A0038093A1039093A20380919F03E0
:100840009091A003A091A103B091A203892B8A2BC0
:100850008B2BA1F70895EEE7F3E020E030E0A191C3
:10086000B191A9014F5F5F4FAB2B99F4220F331F5A
:10087000F901E258FC4F91838083F901EA5AFC4F59
:1008800071836083F901EA5CFC4F71836083CA0164
:1008900008959A014031510511F780E090E00895E4
:1008A000E6E7F3E020E030E0A191B191A9014F5FCC
:1008B0005F4FAB2B71F4220F331FF901EA58FC4F45
:1008C00091838083F901EA5EFC4F71836083CA01E2
:1008D00008959A014430510539F780E090E0089579
:1008E000009751F0853091053CF4880F991FFC0169
:1008F000EC58FC4F118210820895F89410928000F9
:100900008AE08093810010928200109285001092FC
:10091000840080E29EE4909389008093880082E0C6
:1009200080936F001092A3031092A4031092A5036A
:100930001092A60310929E03EEE7F3E0119211923B
:1009400083E0EE39F807D1F7E6E7F3E086E993E0D4
:10095000119211928E179F07D9F7789408950895F0
:10096000CF93DF931F92CDB7DEB784B1898389819E
:1009700087628983898184B985B189838981887DEA
:100980008983898185B9898181608983898185B9D4
:1009900089818E7F8983898185B9898182608983F4
:1009A000898185B989818D7F8983898185B90F90F6
:1009B000DF91CF910895CF93DF931F92CDB7DEB72C
:1009C000F89425B129832981287D2983298125B996
:1009D0002FE530E749E052E40E94C2140E942D1432
:1009E00040E250E0298160FF02C0246001C02B7FFB
:1009F0002983298125B9298121602983298125B964
:100A000029812E7F2983298125B996958795779508
:100A100067954150510931F789818B7F898389819D
:100A200085B988E090E0298121602983298125B951
:100A300029812E7F2983298125B90197A1F78981F1
:100A400082608983898185B989818D7F8983898144
:100A500085B978940F90DF91CF910895BF92CF928E
:100A6000DF92EF92FF920F931F93CF93DF93EC01EE
:100A7000B62EC42ED22E81E492E09983888304E0BE
:100A800010E01E870D878BE090E00E9467157C01C7
:100A90004D2D6B2D0E943511FB82EA828BE090E098
:100AA0000E9467157C014D2D6C2D0E943511FD8231
:100AB000EC828A819B810E94A1112C813D81882337
:100AC00069F0C9010E94A111882319F082E090E029
:100AD00002C081E090E09F838E830AC0C9010E941A
:100AE000A111882319F01F830E8302C01F821E826A
:100AF000188661E070E0CE010E942B041A861986E8
:100B00001C861B86DF91CF911F910F91FF90EF9074
:100B1000DF90CF90BF9008951F93CF93DF93EC01A8
:100B20008A819B810E949311811107C08C819D81D4
:100B30000E949311882309F45FC08A819B810E94DF
:100B40009B112C813D81823039F4C9010E94A11191
:100B500081111DC011E027C0C9010E949B112A818B
:100B60003B81823021F48D859E85049759F0C9011F
:100B70000E949B112C813D81813059F48D859E8589
:100B8000019739F0C9010E94A1118111E3CF12E050
:100B90000AC0C9010E949B11813021F48D859E8578
:100BA000049739F110E08A819B810E949E118C810B
:100BB0009D810E949E111123F9F08885113061F406
:100BC000813031F489859A8501969A87898714C086
:100BD0001A861986188710C0823031F48B859C855F
:100BE00001969C878B8708C01C861B8682E08887BD
:100BF00003C08A819B81AACFDF91CF911F91089575
:100C00000C948C0521E0FC018085811101C020E05D
:100C1000822F0895FC0180850895FC0110860895B7
:100C2000FC0181859285128611860895FC018385D9
:100C3000948514861386089570E0FC017687658795
:100C400008958F929F92AF92BF92CF92EF92FF92B0
:100C50000F931F93CF93DF93CDB7DEB7EC970FB60B
:100C6000F894DEBF0FBECDBF962E142FF8941982D4
:100C70002A831B82215F2C838AE20E94030A64E09C
:100C8000CE0101960E94150A0E943F0A19821A831A
:100C90001B82195E1C838BE20E94030A64E0CE0172
:100CA00001960E94150A0E943F0ABE016F5C7F4FA9
:100CB000892D0E9453038CE20E94030A812C912CFF
:100CC000F401F595E79581E390E08C0F9D1FE80F07
:100CD000F91F9081FE01319686E090FF07C0E08207
:100CE000F1820283E382F482058306C0A082B1828E
:100CF000C282A382B482C58296958A5F3696863375
:100D000061F760E3CE0101960E94150A9FEF891AF0
:100D1000990A88E18816910499F60E943F0A78940E
:100D2000EC960FB6F894DEBF0FBECDBFDF91CF912A
:100D30001F910F91FF90EF90CF90BF90AF909F9039
:100D40008F90089527E432E0FC0131832083259AB7
:100D50002D9A62E370E00C942B04CF93DF931F92E3
:100D6000CDB7DEB785B18983998180E289278983F0
:100D7000898185B90F90DF91CF9108950C94AD06CC
:100D8000CF93DF93CDB7DEB7AC970FB6F894DEBF45
:100D90000FBECDBF81E090E00E9467150E947D04E8
:100DA00082E090E00E9467150E94A20681E090E038
:100DB0000E94671598A38F8F0E945B0C81E090E0E2
:100DC0000E946715998F888F0E945B0C8091340276
:100DD00090913502A091360289A79AA7ABA70E94ED
:100DE000A91186E191E09093C0038093BF03909393
:100DF000C2038093C1039093C4038093C30389E427
:100E000092E00E9494170E94B0048AB18D8B8D8964
:100E100080648AB98BB18D8B8D898F7B8BB98BE088
:100E200090E00E9467159CA38BA348E261E00E94BA
:100E300035118BE090E00E9467159EA38DA348E2D8
:100E400063E00E9435118BE090E00E9467159B8F54
:100E50008A8F4BE267E00E9435118FE090E00E949C
:100E600067159D8F8C8F25E244E063E00E942E057C
:100E70008CEA90E00E946715182FD92E20E030E010
:100E800042E951E06C8D7D8D0E94CE118CEA90E09C
:100E90000E94671589A39AA324E230E042E951E059
:100EA0006C8D7D8D0E94CE1142E0FE0131962F01A6
:100EB000BF01812F9D2D0E94F3133201312C42017D
:100EC000F40101900020E9F73197E819F909C3010D
:100ED000841995098E179F07A0F4F30161913F01D2
:100EE000A12CB12CBCE4CB2EE12C0CEFF02E00E0B9
:100EF000232D40E0888D998D0E942106F0E13F0E60
:100F0000DFCF42E0B40189A19AA10E94F31342010C
:100F1000312CCE0101963C01F30101900020E9F74C
:100F20003197E619F709C401841995098E179F07AF
:100F300098F4F40161914F01A12CB12CACE4CA2EBC
:100F4000E9A4FAA40BA5232D44E2888D998D0E9473
:100F50002106F0E13F0EE0CF8BE590E00E9467159F
:100F60009F8B8E8B688D798D0E94170E60E08E8925
:100F70009F890E946B0E62E0812F9D2D0E94B81206
:100F8000698B7A8B8B8B9C8B69897A898B899C89FD
:100F90000E94DB048E899F890E94650E082F40E025
:100FA00069E0888D998D0E94150D60910601709100
:100FB00007018DE592E00E946A17812E7D2CF2E0F8
:100FC0009F2ECE0101961C018E899F890E94650E7D
:100FD0008E8F013009F0DCC08111EAC08E899F89B3
:100FE0000E945C0E982E8E899F890E945F0E492D6B
:100FF000B101811150C0812F9D2D0E94F313320148
:10100000812CF10101900020E9F73197E219F309F1
:10101000C301841995098E179F07A0F4F30161910C
:101020003F01A12CB12C7CE4C72EE12CECEFFE2E6D
:1010300000E0282D40E0888D998D0E942106F0E186
:101040008F0EDFCF492DB10189A19AA10E94F31320
:101050003201812CF10101900020E9F73197E2196A
:10106000F309C301841995098E179F0708F062C020
:10107000F30161913F01A12CB12C5CE4C52EE9A4E0
:10108000FAA40BA5282D44E2888D998D0E94210693
:10109000F0E18F0EDFCF812F9D2D0E94F3133201DF
:1010A000812CF10101900020E9F73197E219F30951
:1010B000C301841995098E179F0798F4F301619174
:1010C0003F01A12CB12C4CE4C42EE9A4FAA40BA539
:1010D000282D40E0888D998D0E942106F0E18F0E29
:1010E000E0CF492DB10189A19AA10E94F3133201E9
:1010F000812CF10101900020E9F73197E219F30901
:10110000C301841995098E179F07B8F4F301619103
:101110003F01A12CB12C2CE4C22EE12C3CEFF32E8C
:1011200000E0282D44E2888D998D0E942106F0E18F
:101130008F0EDFCF812E7D2C02C089A07AA08E89F0
:101140009F890E94590E682F882D972D0E940213A7
:101150008E899F890E94620E81110AC0692D882D97
:10116000972D0E94B812698B7A8B8B8B9C8B09C050
:1011700089899A89AB89BC89692D882D972D0E9410
:10118000DD1269897A898B899C890E94DB0491C070
:101190008E8D813081F4011114C02F8D38A14A8DBC
:1011A0005B8D6C8D7D8D8E899F890E94D31081C04F
:1011B0008E8D813031F09E8D992371F0913009F040
:1011C00078C02F8D38A14A8D5B8D6C8D7D8D8E8979
:1011D0009F890E94AD0E6DC08A8D9B8D0E949311D8
:1011E0008823B1F08A8D9B8D0E949B11823059F02B
:1011F0008A8D9B8D0E949B11813029F461E08E893C
:101200009F890E94680E8A8D9B8D0E949E1151C0FD
:101210008C8D9D8D0E940206882309F44AC0692D99
:10122000882D972D0E9425128C8D9D8D0E940D0674
:10123000692D882D972D0E94DD12698B7A8B8B8BFF
:101240009C8B69897A898B899C890E94DB04492D52
:10125000B101882D972D0E94F313882D972D0E94A0
:1012600027148CA758A64FA2612CF10101900020F1
:10127000E9F73197E219F3098FA198A58419950927
:101280008E179F07B0F4EFA1F8A56191F8A7EFA31F
:10129000A12CB12C8CE4C82EE12C9CEFF92E00E09F
:1012A000262D4CA5888D998D0E942106F0E16F0EA8
:1012B000DCCF8BA19CA10E9493118823C1F18BA14B
:1012C0009CA10E949B11692D8230A9F4882D972D35
:1012D0000E94DD12698B7A8B8B8B9C8B69897A8952
:1012E0008B899C890E94DB048BB18D8B8D898064F6
:1012F0008BB961E014C0882D972D0E94B812698BBC
:101300007A8B8B8B9C8B69897A898B899C890E94CB
:10131000DB048BB18D8B8D898F7B8BB960E08E89DF
:101320009F890E946B0E8BA19CA10E949E118DA192
:101330009EA10E949311811102C00E8D45CE8DA1F8
:101340009EA10E949B11823019F463E672E002C0F4
:101350006EE672E0C1010E9463178DA19EA10E94FA
:101360009E1140E069E08F8D98A10E94150DB1019A
:101370008F8D98A10E94B70CE0CF08950E94C006FF
:10138000CF93DF931F92CDB7DEB78BB1898389816D
:101390008F7D898389818BB980EA90E00E94AF04B8
:1013A00089818062898389818BB96DE070E080E0FA
:1013B00090E00E9416040F90DF91CF910895CF9393
:1013C000DF9300D0CDB7DEB79BB19A839A81998322
:1013D00028E030E0998187FF02C0986001C0977FC4
:1013E000998399819BB9998194609BB999819BB9A3
:1013F000880F2150310971F78A818BB90F900F90B6
:10140000DF91CF910895CF93DF931F92CDB7DEB7D1
:101410009BB1998399819F7A998399819BB90E9405
:10142000DF090F90DF91CF910895CF92DF92EF9275
:10143000FF920F931F93CF93DF931F92CDB7DEB729
:101440006C018BB18983898180618BB98601E62E1D
:10145000F12CC8018C199D098E159F0534F4F801F3
:1014600081918F010E94DF09F4CF0F90DF91CF911E
:101470001F910F91FF90EF90DF90CF9008958BB167
:10148000837880668BB90895F89489E20E94030AF4
:101490000E943F0A78940895F89481E10E94030A1B
:1014A0000E943F0A78940895CF93DF931F92CDB79F
:1014B000DEB780EA8983F89486E30E94030A61E03C
:1014C000CE0101960E94150A0E943F0A8AE30E94FB
:1014D000030A86E0898361E0CE0101960E94150A25
:1014E0000E943F0A78940F90DF91CF910895EF9278
:1014F000FF920F931F93CF93DF93CDB7DEB7A497DF
:101500000FB6F894DEBF0FBECDBF082F8091A803A1
:101510001CE0819F102D11248091AA03880F880F51
:10152000880FF89419828A831B82895F8C838AE2F0
:101530000E94030A64E0CE0101960E94150A0E94EF
:101540003F0A19821A831B82155F1C838BE20E945B
:10155000030A64E0CE0101960E94150A0E943F0A28
:10156000BE01675E7F4F802F0E9453038CE20E9472
:10157000030A8E01075E1F4F7E0185E2E80EF11C13
:10158000F80191918F012091AF033091B003409108
:10159000B1035091AC036091AD037091AE03FE01B5
:1015A000319683E090FF04C020833183428303C0DF
:1015B00050836183728396958D5F33968B3191F75B
:1015C00068E1CE0101960E94150A0E151F05C1F6AD
:1015D0000E943F0A8091AA039091AB030196843147
:1015E000910529F09093AB038093AA0315C0109244
:1015F000AB031092AA038091A8039091A9030196CE
:101600008A30910529F09093A9038093A80304C020
:101610001092A9031092A8037894A4960FB6F89498
:10162000DEBF0FBECDBFDF91CF911F910F91FF9015
:10163000EF9008956F927F928F929F92AF92CF9288
:10164000DF92EF92FF920F931F93CF93DF93CDB76B
:10165000DEB7A4970FB6F894DEBF0FBECDBF762ECF
:10166000F42E122F442359F01091A8038CE0189FF8
:10167000102D11240091AA03000F000F000FF89401
:1016800019820A831B82095F0C838AE20E94030A83
:1016900064E0CE0101960E94150A0E943F0A198259
:1016A0001A831B82155F1C838BE20E94030A64E08D
:1016B000CE0101960E94150A0E943F0ABE01675E94
:1016C0007F4F872D0E9453038CE20E94030A8E01F4
:1016D000075E1F4F3E0185E2680E711CF801919173
:1016E0008F01FE01319683E090FF04C0C082D18259
:1016F000E28203C080829182A28296958D5F3396AA
:101700008B3191F768E1CE0101960E94150A06150A
:10171000170521F70E943F0AFF2011F18091AA03CB
:101720009091AB0301968431910529F09093AB031E
:101730008093AA0315C01092AB031092AA03809164
:10174000A8039091A90301968A30910529F09093FE
:10175000A9038093A80304C01092A9031092A803C0
:101760007894A4960FB6F894DEBF0FBECDBFDF917C
:10177000CF911F910F91FF90EF90DF90CF90AF909E
:101780009F908F907F906F9008958F929F92AF92CD
:10179000CF92DF92EF920F938090AC039090AD03C5
:1017A000A090AE03C090AF03D090B003E090B1031F
:1017B0000E941A0B0F91EF90DF90CF90AF909F9007
:1017C0008F9008956F927F928F92EF92FF920F9376
:1017D0001F93CF93DF93CDB7DEB727970FB6F8945B
:1017E000DEBF0FBECDBF6090AC037090AD038090A4
:1017F000AE031092AC031092AD038CE48093AE0361
:10180000F89419821A821B8280EA8C838AE20E94F1
:10181000030A64E0CE0101960E94150A0E943F0A65
:1018200019821A821B8280E88C838BE20E94030A51
:1018300064E0CE0101960E94150A0E943F0A809141
:10184000AC038D838091AD038E838091AE038F8333
:101850008CE20E94030A00E810E080EAE82EF12CF6
:1018600063E0CE0105960E94150A81E0E81AF108AE
:10187000B9F70150110989F778941092A9031092D1
:10188000A8031092AB031092AA036092AC0370926B
:10189000AD038092AE0327960FB6F894DEBF0FBE5D
:1018A000CDBFDF91CF911F910F91FF90EF908F905F
:1018B0007F906F9008950F931F93CF93DF931F92A4
:1018C000CDB7DEB72091A70321114BC08C018AB19F
:1018D000898389818C67898389818AB98BB189835E
:1018E00089818378898389818066898389818BB99D
:1018F0008091370290913802A09139028093AF0312
:101900009093B003A093B1031092AC031092AD0377
:101910008CE48093AE031092AB031092AA03109252
:10192000A9031092A803C8010E94C009C8010E941F
:10193000540A6CE070E080E090E00E941604C80158
:101940000E944C0A6CE070E080E090E00E94160477
:10195000C8010E94440AC8010E94E20B81E0809302
:10196000A7030F90DF91CF911F910F910895EF92F0
:10197000FF920F93CF93DF937C01EB016991662374
:1019800049F00091AA032091A80341E0C7010E94F9
:10199000C50BF4CFDF91CF910F91FF90EF90089599
:1019A0002F923F924F925F926F928F929F92AF923F
:1019B000CF92DF92EF92FF920F93CF93DF9300D0FD
:1019C00000D01F92CDB7DEB79D838C832901642E92
:1019D000E982FA820B831B01F10161911F016623E9
:1019E00079F089809A80AB80E62C62010091AA038D
:1019F0002091A80341E08C819D810E941A0BECCFBD
:101A00000F900F900F900F900F90DF91CF910F914B
:101A1000FF90EF90DF90CF90AF909F908F906F905E
:101A20005F904F903F902F900895E8EAF3E070E0C8
:101A30007183608350E05383428308950E94770A44
:101A400080E090E00895845B9F4F21E0FC012083BB
:101A50000895FB01DC01480F591FA417B50719F0C1
:101A600021912D93FACF08952F923F924F925F923A
:101A70006F927F928F929F92AF92BF92CF92DF929E
:101A8000EF92FF920F931F93CF93DF93CDB7DEB703
:101A900062970FB6F894DEBF0FBECDBF6C014B014D
:101AA0005C012BE4A20EB11CD5011C92312C10E07C
:101AB0005BE0252E2C01B5E54B0E511CFC01EE5AC6
:101AC000FF4FFA8BE98BCE0101963C01D5018C9139
:101AD000863009F491C0F601289EE00DF11D112415
:101AE00044856285C4010E94150DF201E080F180F9
:101AF0000281A989BA892D913D914C91F50180818E
:101B0000F601289EE00DF11D112466857785C4013C
:101B10000E94D00CD5018C91F601289EE00DF11D9C
:101B2000112442896089C4010E94150DF50180814C
:101B3000823031F170F48823D1F0813009F049C04E
:101B4000D6011396EC91F0E0EE0FFF1FE25CFE4F22
:101B50003EC0843039F1E8F08530D9F5D6011596CC
:101B6000EC91F0E0EE0FFF1FE65DFE4F30C0D601B6
:101B70001296EC91F0E0EE0FFF1FEC5CFE4F27C0D9
:101B8000D6011496EC91F0E0EE0FFF1FE25DFE4FE0
:101B90001EC0D6011796EC91F0E0EE0FFF1FEC5D32
:101BA000FE4F15C0F60180851F928F9389E792E062
:101BB0009F938F937F926F920E94C4170F900F9004
:101BC0000F900F900F900F90362C172D02C0308081
:101BD0001181F201E080F1800281A989BA892D91F9
:101BE0003D914C91632D712FC4010E94D00CF501E1
:101BF00080818F5F80836ACFD5011C9262960FB679
:101C0000F894DEBF0FBECDBFDF91CF911F910F9132
:101C1000FF90EF90DF90CF90BF90AF909F908F900C
:101C20007F906F905F904F903F902F9008950F930B
:101C30001F93CF93DF93EC018B0185EF92E09983A3
:101C4000888381E08A8382E08B831C821D821E82CE
:101C50001F8282E18887FE01E45BFF4F1082349689
:101C6000718360833896108231961082319610828B
:101C7000389780913A0290913B02A0913C02808378
:101C80009183A283339610823196108231968CE430
:101C9000808342E450E060E571E0CE0109960E9445
:101CA000290DB801CE01DF91CF911F910F910C94B6
:101CB000340DFC0182810895FC0183810895FC01AB
:101CC00084810895FC0185810895FC018681089531
:101CD000FC0166830895AF92BF92CF92DF92EF929C
:101CE000FF920F93CF93DF93EC016D83E62FF0E02B
:101CF000EE0FFF1FE65DFE4FA080B180DE01A75B07
:101D0000BF4FFE01E95BFF4F6E0180E5C80ED11C9D
:101D10004C916081F601808191810E94150D8D8129
:101D2000811103C020E03CEF02C02CEF30E0CB5A21
:101D3000DF4FE880F9800A8140E0B501F60180813B
:101D400091810E94D00CDF91CF910F91FF90EF9085
:101D5000DF90CF90BF90AF9008952F923F924F9217
:101D60005F926F927F928F929F92AF92BF92CF922B
:101D7000DF92EF92FF920F931F93CF93DF93CDB734
:101D8000DEB760970FB6F894DEBF0FBECDBF6C0113
:101D90005B013A0149011C0188E5280E311C8CEFDA
:101DA000D1018C93F601E75AFF4F108231961082D1
:101DB0002601BCE44B0E511CF2018081882399F16D
:101DC00010828601055B1F4FD8018C915BE0F52ED8
:101DD000F601F89EE00DF11D112444856285C901CC
:101DE0000E94150DF601EB5AFF4F80819181A2816F
:101DF0003397208131814281F8015081F601F59EAF
:101E0000E00DF11D1124668577857C010A2FC40140
:101E10000E94D00C81E0F601E15BFF4F808364E01B
:101E2000C5010E941C06C3010E949311882309F476
:101E300081C0C3010E949B11823081F4C3010E94C2
:101E40009E1160ED77E0C6010E945004F601E35B4D
:101E5000FF4F91838083D2011C926CC0C3010E940A
:101E60009B11813009F066C0C3010E949E11F601EA
:101E7000E15BFF4F8081882321F01082F6011682FA
:101E800079C1F601E35BFF4F808191810E9470046C
:101E90003601FBE46F0E711CD3018C911BE0F6013F
:101EA000189FE00DF11D112444856285C4010E9434
:101EB000150D2601B5E54B0E511CF201E080F180B5
:101EC00002813397208131814281D3018C91F601C7
:101ED000189FE00DF11D112466857785C4010E94CD
:101EE000D00CF30180818F5F863011F0808301C0B8
:101EF0001082F30180811BE0F601189FE00DF11DB7
:101F0000112444856285C4010E94150DD201ED9013
:101F1000FD900C91F101208131814281D3018C919E
:101F2000F601189FE00DF11D112466857785C40127
:101F30000E94D00CC5010E940206882309F41AC130
:101F40003601BBE46B0E711CF3018081823009F411
:101F50005EC028F4882361F08130A1F1EAC08430AA
:101F600009F499C008F475C0853009F4C8C0E1C00F
:101F7000C5010E940A06813051F4D60112968C9157
:101F800012978F5F853079F4F601128212C0C50175
:101F90000E940A06823069F4D60112968C9112973B
:101FA000811104C084E012968C9303C08150F60125
:101FB0008283D6011296EC91F0E0EE0FFF1FEC5CED
:101FC000FE4F22C0C5010E940A06813039F4F60195
:101FD00083818F5F893061F413820EC0C5010E9436
:101FE0000A06823049F4F6018381811103C088E03A
:101FF000838302C081508383D6011396EC91F0E075
:10200000EE0FFF1FE25CFE4F5080418094C0C5017F
:102010000E940A06813039F4F60184818F5F833093
:1020200059F414820DC0C5010E940A06823041F4A1
:10203000F6019481911102C0848302C0915094836F
:10204000D6011496EC91F0E0EE0FFF1FE25DFE4F1B
:10205000DBCFC5010E940A06813039F4F601878181
:102060008F5F833059F417820DC0C5010E940A06A4
:10207000823041F4F6019781911102C0878302C03A
:1020800091509783D6011796EC91F0E0EE0FFF1F69
:10209000EC5DFE4FB9CFC5010E940A06813039F4CC
:1020A000F60180858F5F8A3160F089E10DC0C5013E
:1020B0000E940A06823059F4F601808581508530ED
:1020C00010F0808704C085E0D60118968C93F60145
:1020D00080851F928F938CE792E09F938F938E0160
:1020E0000F5F1F4F1F930F930E94C4170F900F9005
:1020F0000F900F900F900F90502E412E1CC0C501D5
:102100000E940A06882361F0D60115968C911597D6
:10211000811104C081E015968C9302C0F6011582EE
:10212000D6011596EC91F0E0EE0FFF1FE65DFE4F35
:102130006BCF512C412CC5010E940D06F30180810B
:10214000F6019BE0899FE00DF11D11244289608911
:10215000C4010E94150DF601EB5AFF4FE080F1809B
:1021600002813397208131814281652D742DC40114
:102170000E94D00C60960FB6F894DEBF0FBECDBFA4
:10218000DF91CF911F910F91FF90EF90DF90CF9053
:10219000BF90AF909F908F907F906F905F904F9087
:1021A0003F902F9008956F927F928F929F92AF925F
:1021B000BF92CF92DF92EF92FF920F931F93CF9334
:1021C000DF93EC015B014A0169018C01055B1F4F44
:1021D000F80180819BE0F92EFE01F89EE00DF11DD3
:1021E0001124628544853E01F8E56F0E711C8CEF69
:1021F000F30180833196108231961082C9010E94CA
:10220000150DFE01EB5AFF4F80819181A281F301F0
:10221000208131814281F8015081FE01F59EE00D5F
:10222000F11D1124668577857C010A2FC6010E9465
:10223000D00C61E0C5010E941C06FE01E15BFF4F6E
:1022400010829601A401B501CE01DF91CF911F91BB
:102250000F91FF90EF90DF90CF90BF90AF909F9045
:102260008F907F906F900C94AD0EFC018BEF92E0FD
:102270009183808381E090E0062E01C0880F0A944C
:10228000EAF7A42FB0E0B483A3839D012250310963
:10229000368325831197B087A78362839C91282F6B
:1022A000209592239C93A381B4819C91982B9C931D
:1022B000A581B6819C91892311F0118602C082E02C
:1022C0008187128661E070E0CF010C942B04FC0141
:1022D000A581B6812C9181E090E0028002C0880F38
:1022E000991F0A94E2F782239185913051F028F0EA
:1022F000923061F0933079F00895811111C081E03E
:1023000008C081110DC082E0818709C0882341F097
:1023100083E081870895882319F0118681E0828700
:1023200008950C94671121E0FC018285811101C0A0
:1023300020E0822F0895FC0182850895FC01128619
:102340000895FC019185925081E0923008F080E080
:1023500008951092C50088E08093C40088E18093BE
:10236000C1008EE08093C20008958091C00087FF75
:10237000FCCF8091C60090E00895CF93C82F8A309B
:1023800019F48DE00E94BD118091C00085FFFCCF43
:10239000C093C60080E090E0CF910895CF92DF9285
:1023A000EF92FF92CF93FA01DC014E555F4FC08050
:1023B000D180E280F380CD92DD92ED92FC92139772
:1023C000C480D580E680F7801496CD92DD92ED92A0
:1023D000FC921797C0851896CC931897C184D28425
:1023E000E384F4841996CD92DD92ED92FC921C97D1
:1023F000C584D684E784F0881D96CD92DD92ED9257
:10240000FC925097C1895196CC93519772965296EF
:10241000E417F50761F6FC01E955FF4F718360830E
:10242000359744E650E060E070E04083518362837A
:102430007383349641E04083339631832083CF9178
:10244000FF90EF90DF90CF9008958F929F92AF9280
:10245000BF92CF92DF92EF92FF921F93CF93DF93C1
:10246000EC01162F7C0127EAE20EF11CF7018081B6
:1024700091810E940206882309F46EC0F7018081D1
:1024800091810E940A06823091F5FE01EE55FF4FC0
:1024900080809180A280B380F701808191810E9429
:1024A0001606DC011196A50194010E942B16FE016F
:1024B00022E1129FE00DF11D1124C080D180E28045
:1024C000F380C61AD70AE80AF90AC082D182E282EA
:1024D000F382EF01C184D284E384F484A7019601DE
:1024E000261B370B480B590BDA01C90131C081306B
:1024F00099F5FE01EE55FF4F80809180A280B38058
:10250000F701808191810E941006DC011196A501DE
:1025100094010E942B16FE0122E1129FE00DF11D95
:102520001124C080D180E280F380C60ED71EE81E41
:10253000F91EC082D182E282F382EF01C184D2848B
:10254000E384F484DC01CB018C0D9D1DAE1DBF1D09
:1025500089879A87AB87BC87DF91CF911F91FF90C6
:10256000EF90DF90CF90BF90AF909F908F900895A5
:102570000F931F93FC0102E1609FE00DF11D1124F8
:1025800080819181A281B381448155816681778167
:102590008C019D01040F151F261F371FC901B801AB
:1025A000208530E040E050E00E94FE15CA01B901EC
:1025B0000E945C141F910F9108950F931F93FC01CB
:1025C00002E1609FE00DF11D112481859285A385B4
:1025D000B48545855685678570898C019D01040FFA
:1025E000151F261F371FC901B801218930E040E0BF
:1025F00050E00E94FE15CA01B9010E945C141F91AF
:102600000F910895FC01EA55FF4F6083DC01AE5540
:10261000BF4F84E0689FF0011124E350FD4F4081DB
:102620005181628173814D935D936D937C93139778
:102630000895CF92DF92EF92FF92CF93DF936A01DA
:102640007B01E901CB01BA0120E031EE45EF55E015
:102650000E94FE1580E3820F888360E071EE85EFB3
:1026600095E00E94EE15C61AD70AE80AF90AC701D2
:10267000B60120E836E948E950E00E94FE1580E303
:10268000820F898360E876E988E990E00E94EE1580
:10269000C61AD70AE80AF90AC701B60120E432E4EB
:1026A0004FE050E00E94FE1580E3820F8A8360E4D1
:1026B00072E48FE090E00E94EE15C61AD70AE80A8D
:1026C000F90AC701B60120EA36E841E050E00E946D
:1026D000FE1580E3820F8B8360EA76E881E090E06C
:1026E0000E94EE15C61AD70AE80AF90AC701B60110
:1026F00020E137E240E050E00E94FE1580E3820FC7
:102700008C83A0E1B7E20E942016C61AD70AE80A15
:10271000F90AC701B60128EE33E040E050E00E941C
:10272000FE1580E3820F8D83A8EEB3E00E94201691
:10273000C61AD70AE80AF90AC701B60124E630E04A
:1027400040E050E00E94FE1580E3820F8E83A4E6F5
:10275000B0E00E942016C61AD70AE80AF90AC70193
:10276000B6012AE030E040E050E00E94FE1580E330
:10277000820F8F83AAE0B0E00E942016A701960185
:10278000261B370B480B590BDA01C901805D88877E
:102790001986DF91CF91FF90EF90DF90CF90089551
:1027A000FA01DB0180E090E020E030E05EE22115FC
:1027B000310559F08330910519F08630910511F4F7
:1027C000508331962C91208304C04C91403321F0EA
:1027D0004083319621E030E00196119689309105D1
:1027E00031F710820895EF92FF920F931F93CF93CA
:1027F000DF93CDB7DEB760970FB6F894DEBF0FBE9C
:10280000CDBF8C017B01FC0182E1489FE00DF11DF1
:10281000112441855285638574859E012F5F3F4F4A
:10282000C8010E941913A701BE016F5F7F4FC80145
:102830000E94D01360960FB6F894DEBF0FBECDBFD6
:10284000DF91CF911F910F91FF90EF9008958755E1
:102850009F4FFC018081918108950E94A11488F00E
:102860009F5798F0B92F9927B751B0F0E1F0660F54
:10287000771F881F991F1AF0BA95C9F714C0B13095
:1028800091F00E94BB14B1E008950C94BB14672F23
:10289000782F8827B85F39F0B93FCCF386957795C4
:1028A0006795B395D9F73EF49095809570956195AD
:1028B0007F4F8F4F9F4F0895E89409C097FB3EF4D8
:1028C00090958095709561957F4F8F4F9F4F99237D
:1028D000A9F0F92F96E9BB279395F69587957795FB
:1028E0006795B795F111F8CFFAF4BB0F11F460FFBB
:1028F0001BC06F5F7F4F8F4F9F4F16C0882311F013
:1029000096E911C0772321F09EE8872F762F05C026
:10291000662371F096E8862F70E060E02AF09A95C1
:10292000660F771F881FDAF7880F9695879597F9B6
:10293000089557FD9058440F551F59F05F3F71F0AF
:102940004795880F97FB991F61F09F3F79F0879516
:102950000895121613061406551FF2CF4695F1DF9F
:1029600008C0161617061806991FF1CF869571052F
:10297000610508940895E894BB2766277727CB0163
:1029800097F908950E94D5140C9446150E943815A5
:1029900038F00E943F1520F0952311F00C942F156C
:1029A0000C94351511240C94BC140E94991470F3E6
:1029B000959FC1F3950F50E0551F629FF001729FE4
:1029C000BB27F00DB11D639FAA27F00DB11DAA1FF3
:1029D000649F6627B00DA11D661F829F2227B00D40
:1029E000A11D621F739FB00DA11D621F839FA00DCB
:1029F000611D221F749F3327A00D611D231F849F1B
:102A0000600D211D822F762F6A2F11249F57504071
:102A10009AF0F1F088234AF0EE0FFF1FBB1F661FEC
:102A2000771F881F91505040A9F79E3F510580F0B5
:102A30000C942F150C94BC145F3FE4F3983ED4F330
:102A4000869577956795B795F795E7959F5FC1F759
:102A5000FE2B880F911D9695879597F9089597F904
:102A60009F6780E870E060E008959FEF80EC089534
:102A700000240A941616170618060906089500245D
:102A80000A9412161306140605060895092E0394D7
:102A9000000C11F4882352F0BB0F40F4BF2B11F44B
:102AA00060FF04C06F5F7F4F8F4F9F4F0895089561
:102AB0000E94B3150E9457150E94BD09C0E0D0E0E6
:102AC0000E94BE092097E1F30E940000F9CF0C9408
:102AD00042161F920F920FB60F9211242F933F931D
:102AE0008F939F93AF93BF938091B3039091B4035F
:102AF000A091B503B091B6033091B20323E0230F48
:102B00002D3720F40196A11DB11D05C026E8230F25
:102B10000296A11DB11D2093B2038093B30390933D
:102B2000B403A093B503B093B6038091B70390911B
:102B3000B803A091B903B091BA030196A11DB11DCC
:102B40008093B7039093B803A093B903B093BA03EB
:102B5000BF91AF919F918F913F912F910F900FBE99
:102B60000F901F901895789484B5826084BD84B5C9
:102B7000816084BD85B5826085BD85B5816085BD78
:102B8000EEE6F0E0808181608083E1E8F0E0108291
:102B9000808182608083808181608083E0E8F0E0D2
:102BA000808181608083E1EBF0E0808184608083BC
:102BB000E0EBF0E0808181608083EAE7F0E08081F3
:102BC0008460808380818260808380818160808353
:102BD0008081806880831092C1000895DB018F930B
:102BE0009F930E942016BF91AF91A29F800D911DCF
:102BF000A39F900DB29F900D11240895A1E21A2E6B
:102C0000AA1BBB1BFD010DC0AA1FBB1FEE1FFF1F90
:102C1000A217B307E407F50720F0A21BB30BE40BE0
:102C2000F50B661F771F881F991F1A9469F7609527
:102C30007095809590959B01AC01BD01CF010895E1
:102C40000E943316A59F900DB49F900DA49F800DF8
:102C5000911D11240895B7FF0C9420160E94201690
:102C6000821B930B0895A29FB001B39FC001A39F45
:102C7000700D811D1124911DB29F700D811D1124B5
:102C8000911D08950F931F93CF93DF938230910589
:102C900010F482E090E0E091BD03F091BE0320E0EB
:102CA00030E0A0E0B0E0309719F14081518102811D
:102CB000138148175907C8F08417950769F41097CE
:102CC00031F012960C93129713961C9327C0009321
:102CD000BD031093BE0322C02115310519F0421720
:102CE000530718F49A01BD01EF01DF01F801DBCFB2
:102CF00021153105F9F0281B390B2430310580F4FA
:102D00008A819B816115710521F0FB019383828388
:102D100004C09093BE038093BD03FE01329644C06D
:102D2000FE01E20FF31F8193919322503109398301
:102D300028833AC02091BB033091BC03232B41F47C
:102D400020910201309103013093BC032093BB0317
:102D500020910001309101012115310541F42DB779
:102D60003EB74091040150910501241B350BE091C1
:102D7000BB03F091BC03E217F307A0F42E1B3F0B3B
:102D80002817390778F0AC014E5F5F4F24173507DD
:102D900048F04E0F5F1F5093BC034093BB038193D9
:102DA000919302C0E0E0F0E0CF01DF91CF911F915D
:102DB0000F910895CF93DF93009709F481C0FC0130
:102DC000329713821282A091BD03B091BE03109777
:102DD00081F420813181820F931F2091BB033091B8
:102DE000BC032817390751F5F093BC03E093BB03EC
:102DF00067C0ED0120E030E0CE17DF0740F44A81E4
:102E00005B819E0141155105F1F0EA01F5CFD383B5
:102E1000C28340815181840F951FC817D90759F487
:102E200088819981840F951F0296918380838A817E
:102E30009B81938382832115310529F4F093BE038E
:102E4000E093BD033DC0E901FB83EA8349915991B9
:102E5000C40FD51FEC17FD0761F480819181840FA9
:102E6000951F0296E90199838883828193819B83D0
:102E70008A83E0E0F0E012968D919C911397009781
:102E800019F0FD01DC01F7CF8D919C9111979D0107
:102E90002E5F3F4F820F931F2091BB033091BC03E5
:102EA0002817390769F4309729F41092BE0310925D
:102EB000BD0302C013821282B093BC03A093BB0374
:102EC000DF91CF910895FB01DC0101900D9200206C
:102ED000E1F70895EF92FF920F931F93CF93DF9343
:102EE000DB0113962C9121FF18C08B017C01D0E0EF
:102EF000C0E0F70181917F01882361F0D801189625
:102F0000ED91FC911997B8010995892B91F3DFEFA9
:102F1000CFEFEFCF8D2F9C2F02C08FEF9FEFCDB75C
:102F2000DEB7E6E00C949F1A0F931F93CF93DF93C5
:102F3000E091C103F091C203238121FF1BC08C01EA
:102F4000D0E0C0E0F80181918F016091C1037091E0
:102F5000C203DB011896ED91FC911997882331F09B
:102F60000995892B79F3DFEFCFEFECCF8AE0099554
:102F7000892B19F08FEF9FEF02C08D2F9C2FDF91CF
:102F8000CF911F910F910895AEE0B0E0EAECF7E128
:102F90000C94851A0D891E8986E08C831A83098317
:102FA0008FEF9FE79E838D83AE01475E5F4F6F89F2
:102FB000788DCE0101960E94E617EF81F885E00F2B
:102FC000F11F10822E96E4E00C94A11AABE0B0E061
:102FD000ECEEF7E10C94771A6C017B018A01FC019D
:102FE00017821682838181FFCCC1CE0101963C01FC
:102FF000F6019381F70193FD859193FF81917F0104
:10300000882309F4BAC1853239F493FD859193FF81
:1030100081917F01853229F4B60190E00E94DD198B
:10302000E7CF912C212C312CFFE1F315D8F08B3216
:1030300079F038F4803279F08332A1F4232D2061C5
:103040001DC08D3261F0803369F4232D216016C0DC
:10305000832D8260382EE32DE4603E2E2AC0F32DAE
:10306000F8601DC037FC2DC020ED280F2A3040F03D
:103070008E32B9F436FC81C1232D2064322E19C062
:1030800036FE06C08AE0989E200D1124922E11C0B3
:10309000EAE02E9E200D1124222EF32DF0623F2E09
:1030A00008C08C3621F4832D8068382E02C0883603
:1030B00041F4F70193FD859193FF81917F01811187
:1030C000B3CF982F9F7D9554933028F40C5F1F4FFA
:1030D0009FE399830DC0833631F0833771F08335D8
:1030E00009F059C021C0F801808189830E5F1F4F0C
:1030F00088248394912C530113C02801F2E04F0ED1
:10310000511CF801A080B18036FE03C0692D70E02B
:1031100002C06FEF7FEFC5010E94D2194C018201FE
:10312000F32DFF773F2E16C0280122E0420E511CDE
:10313000F801A080B18036FE03C0692D70E002C0A6
:103140006FEF7FEFC5010E94C7194C01F32DF068A6
:103150003F2E820133FC1BC0822D90E08816990619
:10316000B0F4B60180E290E00E94DD192A94F4CF19
:10317000F50137FC859137FE81915F01B60190E042
:103180000E94DD1921102A9421E0821A91088114ED
:10319000910471F7E8C0843611F0893641F5F801E1
:1031A00037FE07C060817181828193810C5F1F4F60
:1031B00008C060817181072E000C880B990B0E5F8F
:1031C0001F4FF32DFF763F2E97FF09C090958095F6
:1031D000709561957F4F8F4F9F4FF0683F2E2AE08B
:1031E00030E0A3010E94191A882E861845C0853741
:1031F00031F4232D2F7EB22E2AE030E025C0932D0E
:10320000997FB92E8F36C1F018F4883579F0B5C0A2
:10321000803719F0883721F0B0C0E92FE061BE2E69
:10322000B4FE0DC0FB2DF460BF2E09C034FE0AC0F1
:10323000292F2660B22E06C028E030E005C020E12C
:1032400030E002C020E132E0F801B7FE07C0608143
:103250007181828193810C5F1F4F06C060817181F3
:1032600080E090E00E5F1F4FA3010E94191A882E84
:103270008618FB2DFF773F2E36FE0DC0232D2E7FA7
:10328000A22E891458F434FE0BC032FC09C0832DE1
:103290008E7EA82E05C0B82CA32C03C0B82C01C06C
:1032A000B92CA4FE0FC0FE01E80DF11D8081803312
:1032B00021F49A2D997EA92E09C0A2FE06C0B394CE
:1032C000B39404C08A2D867809F0B394A3FC11C08E
:1032D000A0FE06C0B21488F4280C922C9B180EC0D5
:1032E000B21460F4B60180E290E00E94DD19B3945C
:1032F000F7CFB21418F42B1802C0982C212CA4FE7E
:1033000010C0B60180E390E00E94DD19A2FE17C054
:10331000A1FC03C088E790E002C088E590E0B60118
:103320000CC08A2D867859F0A1FE02C08BE201C044
:1033300080E2A7FC8DE2B60190E00E94DD198914BD
:1033400038F4B60180E390E00E94DD199A94F7CF3B
:103350008A94F301E80DF11D8081B60190E00E948E
:10336000DD198110F5CF222009F442CEB60180E2AA
:1033700090E00E94DD192A94F6CFF60186819781AC
:1033800002C08FEF9FEF2B96E2E10C94931AFC01A1
:103390000590615070400110D8F7809590958E0F80
:1033A0009F1F0895FC016150704001900110D8F7F3
:1033B000809590958E0F9F1F08950F931F93CF9325
:1033C000DF93FB01238121FD03C08FEF9FEF2CC012
:1033D00022FF16C046815781248135814217530749
:1033E00044F4A081B1819D012F5F3F4F3183208341
:1033F0008C93268137812F5F3F4F3783268314C0FC
:103400008B01EC01FB010084F185E02D0995892BEE
:10341000E1F6D80116968D919C9117970196179613
:103420009C938E931697CE01DF91CF911F910F91B0
:103430000895FA01AA27283051F1203181F1E8944A
:103440006F936E7F6E5F7F4F8F4F9F4FAF4FB1E097
:103450003ED0B4E03CD0670F781F891F9A1FA11D92
:10346000680F791F8A1F911DA11D6A0F711D811D93
:10347000911DA11D20D009F468943F912AE0269F58
:1034800011243019305D3193DEF6CF010895462FB7
:103490004770405D4193B3E00FD0C9F7F6CF462F98
:1034A0004F70405D4A3318F0495D31FD4052419301
:1034B00002D0A9F7EACFB4E0A695979587957795BE
:1034C0006795BA95C9F700976105710508959B0145
:1034D000AC010A2E06945795479537952795BA95CE
:1034E000C9F7620F731F841F951FA01D08952F92A7
:1034F0003F924F925F926F927F928F929F92AF9284
:10350000BF92CF92DF92EF92FF920F931F93CF93D0
:10351000DF93CDB7DEB7CA1BDB0B0FB6F894DEBF67
:103520000FBECDBF09942A88398848885F846E848D
:103530007D848C849B84AA84B984C884DF80EE80D7
:10354000FD800C811B81AA81B981CE0FD11D0FB6E0
:10355000F894DEBF0FBECDBFED010895F894FFCF04
:103560000000C50320000801000000020000000068
:103570001E0D000000000000000300000000BD114F
:10358000B511000080028302860289028D02910239
:10359000950299029D02A102A502A902AD02B10203
:1035A000B502B902BD02C102C502C902CD029D0227
:1035B0000006000000D102060005000106000C0014
:1035C000D702060011000207000000DD0207000418
:1035D000000307000700E20207000A000407000ECC
:1035E00000E602070012000508000000EB020800D8
:1035F000050040771B006079FEFF0140771B00004B
:1036000000000001E06735006079FEFF01E06735EA
:10361000000000000001C0CF6A006079FEFF01C019
:10362000CF6A000000000001809698006079FEFFDC
:1036300001809698000000000001809FD500C0F234
:10364000FCFF02809FD500000000000220B21301A1
:10365000C0F2FCFF0220B213010000000002406F24
:103660004001206CFBFF03406F400100000000039D
:1036700090CA7B01206CFBFF0390CA7B0100000015
:103680000003003FAB0180E5F9FF04003FAB010000
:10369000000000047C7C7CFCFCFCFCFCFC000000CA
:1036A00000000600000000BE066D61696E3A2053FE
:1036B00074617274696E67206C6F6F70004141367F
:1036C000445100444153485F434C4F5345004441EB
:1036D00053485F4F50454E20002564002532690055
:1036E0005354004247005044005258200054582080
:1036F0000041202000422020005350200031302083
:103700000031303000314B200031304B00314D2042
:103710000031363000383020003430200033302083
:103720000032302000313720003135200031322086
:103730000053544550200042414E44200056464F0D
:1037400020004B59200053504420004D4F44452049
:103750000000000000230D0000000091110A00008D
:103760000064000000E803000010270000A08601AC
:063770000040420F0000C2
:00000001FF
