S00C0000646473362E73726563A7
S11300000C9434000C9451000C9451000C94510045
S11300100C9451000C9451000C9451000C94F20374
S11300200C9451000C9451000C9451000C944E13F8
S11300300C9451000C9451000C9451000C945100F8
S11300400C9432170C9451000C9451000C945100F0
S11300500C9451000C9451000C9451000C945100D8
S11300600C9451000C94510011241FBECFEFD8E022
S1130070DEBFCDBF13E0A0E0B1E0E8E3F9E302C0E6
S113008005900D92AA32B107D9F723E0AAE2B3E0B2
S113009001C01D92AC38B207E1F70E9421170C94FD
S11300A09A1C0C94000000000000000000000000F6
S11300B0000000000000000000000000000000003C
S11300C0000000000000000000000000000000002C
S11300D0000000000000000000000000000000001C
S11300E0000000000000000000000000000000000C
S11300F000000000000000000000000000000000FC
S113010000000000000000000000000000000000EB
S113011000000000000000000000000000000000DB
S113012000000000000000000000000000000000CB
S113013000000000000000000000000000000000BB
S113014000000000000000000000000000000000AB
S1130150000000000000000000000000000000009B
S1130160000000000000000000000000000000008B
S1130170000000000000000000000000000000007B
S1130180000000000000000000000000000000006B
S1130190000000000000000000000000000000005B
S11301A0000000000000000000000000000000004B
S11301B0000000000000000000000000000000003B
S11301C0000000000000000000000000000000002B
S11301D0000000000000000000000000000000001B
S11301E0000000000000000000000000000000000B
S11301F000000000000000000000000000000000FB
S113020000000000000000000000000000000000EA
S113021000000000000000000000000000000000DA
S113022000000000000000000000000000000000CA
S1130230000000080808080808000800000000146E
S113024014140000000000000000000014143E1408
S11302503E14140000000000083C0A1C281E08007C
S113026000000000062610080432300000000000E0
S11302701C0202042A122C000000001808040000CA
S113028000000000000020101008080808081010E2
S113029020000204040808080808040402000000FE
S11302A000082A1C2A080000000000000008083E7C
S11302B008080000000000000000000000181808F2
S11302C0040000000000003E0000000000000000E8
S11302D0000000000018180000002020101008087A
S11302E0040402020000001C22322A2622221C00DE
S11302F0000000080C080808080808000000001C9A
S11303002220100804023E000000001C22201820B5
S113031020221C0000000010181814143E1038008D
S11303200000003E02021E2020221C0000000018D3
S113033004021E2222221C000000003E2220201063
S1130340100808000000001C22221C2222221C008B
S11303500000001C2222223C20100C00000000009F
S113036000181800001818000000000000181800F9
S1130370001818080400000000300C030C300000C2
S11303800000000000003E003E00000000000000ED
S113039000030C300C0300000000001C2220100895
S11303A008000800000000001C223A3A1A021C004F
S11303B000000000081422223E2222000000000057
S11303C01E22221E22221E00000000001C22020205
S11303D002221C00000000000E12222222120E0033
S11303E0000000003E02021E02023E000000000067
S11303F03E02021E02020200000000001C22023221
S113040022223C00000000002222223E222222005E
S1130410000000003E08080808083E000000000034
S11304203820202022221C000000000022120A068C
S11304300A122200000000000202020202023E0030
S11304400000000022362A2A222222000000000096
S11304502226262A32322200000000001C222222F8
S113046022221C00000000001E22221E02020200A2
S1130470000000001C22222222221C300000000066
S11304801E22221E0A122200000000001C22021C4E
S113049020221C00000000003E080808080808008C
S11304A0000000002222222222221C000000000060
S11304B02222221414080800000000002222222A0A
S11304C02A362200000000002222140814222200EE
S11304D000000000222214080808080000000000A0
S11304E03E20100804023E000000380808080808EE
S11304F00808080838000202040408081010202024
S113050000000E0808080808080808080E0000087B
S113051014220000000000000000000000000000A1
S11305200000003F0000000C081000000000000064
S11305300000000000003C2222322C0000000002D7
S113054002021E2222221E000000000000003C02C3
S113055002023C000000002020203C2222223C0019
S11305600000000000001C223E021C0000000038B5
S113057004041E04040404000000000000003C22E3
S113058022223C20201C000202021E2222222200DF
S11305900000000808000C0808081C0000000010F7
S11305A010001C1010101010100E00020202120A8B
S11305B0060A12000000000C0808080808081C00BD
S11305C0000000000000162A2A2A22000000000071
S11305D000001A26222222000000000000001C2233
S11305E022221C000000000000001E2222221E0203
S11305F00202000000003C2222223C2020200000B5
S113060000001A06020202000000000000003C0282
S11306101C201E000000000808083E0808083000DE
S1130620000000000000222222322C000000000002
S11306300000361414080800000000000000222AFC
S11306402A2A1400000000000000221408142200CA
S1130650000000000000222222223C20201C000076
S113066000003E1008043E00000020101010100886
S113067010101010200008080808080808080808C6
S1130680080002040404040804040404020000042E
S11306902A100000000000000000000000080814F8
S11306A014223E000000CF93DF939CE0899FE3E592
S11306B0F0E0EE0FFF1FE00DF11D8CE0EB019591D2
S11306C099938A95E1F71124DF91CF9108950F93BF
S11306D01F93CF93DF938091670390916803A09158
S11306E06903B0916A030196A11DB11D809367034C
S11306F090936803A0936903B0936A0380916303A2
S113070090916403A0916503B0916603892B8A2BB1
S11307108B2B99F08091630390916403A0916503FE
S1130720B09166030197A109B10980936303909383
S11307306403A0936503B093660302E513E0C0E08D
S1130740D0E0D8018D919D918D010097E1F09E013B
S1130750220F331FF901E25DFC4F4081518141506A
S1130760510951834083452B71F4D901A25CBC4FDC
S11307702D913C9131832083DC01ED91FC9101901A
S1130780F081E02D09952196C830D105D1F60EE40B
S113079013E0C0E0D0E0F801808191810097B9F0C6
S11307A0FE01EE0FFF1FE65DFC4F208131812150D9
S11307B0310931832083232B51F4DC01ED91FC9129
S11307C00190F081E02D0995F801118210822196A3
S11307D00E5F1F4FC230D105F1F6DF91CF911F910B
S11307E00F9108951F920F920FB60F9211242F9319
S11307F03F934F935F936F937F938F939F93AF93A5
S1130800BF93EF93FF930E946703FF91EF91BF9112
S1130810AF919F918F917F916F915F914F913F9194
S11308202F910F900FBE0F901F9018956093630344
S113083070936403809365039093660380916303CC
S113084090916403A0916503B0916603892B8A2B70
S11308508B2BA1F70895E2E5F3E020E030E0A191CD
S1130860B191A9014F5F5F4FAB2B99F4220F331F56
S1130870F901EE5AFC4F91838083F901E25CFC4F4D
S113088071836083F901E25DFC4F71836083CA0167
S113089008959A014830510511F780E090E00895D9
S11308A020914E0330914F03232B49F020915003A4
S11308B030915103232BA9F421E030E002C020E061
S11308C030E0A901440F551FFA01E25BFC4F91830C
S11308D08083FA01E65DFC4F71836083C901019650
S11308E0089580E090E00895009751F083309105D9
S11308F03CF4880F991FFC01E45BFC4F11821082C9
S11309000895F89482E08093B00097E09093B1004A
S11309101092B2009DE99093B300809370001092FE
S11309206703109268031092690310926A0310928D
S11309306203E2E5F3E01192119283E0E236F807F4
S1130940D1F7EEE4F3E08EE593E0119211928E1765
S11309509F07D9F7789408950895CF93DF931F9252
S1130960CDB7DEB784B18983898187628983898120
S113097084B985B189838981887D8983898185B991
S1130980898181608983898185B989818E7F898301
S1130990898185B9898182608983898185B98981C1
S11309A08D7F8983898185B90F90DF91CF910895D7
S11309B0CF93DF931F92CDB7DEB7F89425B1298387
S11309C02981287D2983298125B92FE530E749E04C
S11309D052E40E948B160E94F61540E250E02981F1
S11309E060FF02C0246001C02B7F2983298125B9BF
S11309F0298121602983298125B929812E7F298391
S1130A00298125B996958795779567954150510920
S1130A1031F789818B7F8983898185B988E090E06A
S1130A20298121602983298125B929812E7F298360
S1130A30298125B90197A1F78981826089838981F8
S1130A4085B989818D7F8983898185B978940F904F
S1130A50DF91CF910895BF92CF92DF92EF92FF92F0
S1130A600F931F93CF93DF93EC01B62EC42ED22E97
S1130A7081E492E09983888304E010E01E870D8767
S1130A808BE090E00E9430177C014D2D6B2D0E946D
S1130A908F12FB82EA828BE090E00E9430177C0187
S1130AA04D2D6C2D0E948F12FD82EC828A819B81D8
S1130AB00E94FB122C813D81882369F0C9010E94A8
S1130AC0FB12882319F082E090E002C081E090E0FC
S1130AD09F838E830AC0C9010E94FB12882319F0E8
S1130AE01F830E8302C01F821E82188661E070E09D
S1130AF0CE010E942B041A8619861C861B86DF9160
S1130B00CF911F910F91FF90EF90DF90CF90BF9006
S1130B1008951F93CF93DF93EC018A819B810E94F8
S1130B20ED12811107C08C819D810E94ED128823F2
S1130B3009F45FC08A819B810E94F5122C813D815A
S1130B40823039F4C9010E94FB1281111DC011E0E9
S1130B5027C0C9010E94F5122A813B81823021F409
S1130B608D859E85049759F0C9010E94F5122C8148
S1130B703D81813059F48D859E85019739F0C901F5
S1130B800E94FB128111E3CF12E00AC0C9010E9446
S1130B90F512813021F48D859E85049739F110E09A
S1130BA08A819B810E94F8128C819D810E94F81297
S1130BB01123F9F08885113061F4813031F489858D
S1130BC09A8501969A87898714C01A861986188788
S1130BD010C0823031F48B859C8501969C878B876D
S1130BE008C01C861B8682E0888703C08A819B819B
S1130BF0AACFDF91CF911F9108950C94890521E02C
S1130C00FC018085811101C020E0822F0895FC0140
S1130C1080850895FC0110860895FC0181859285E4
S1130C20128611860895FC018385948514861386A3
S1130C30089570E0FC017687658708958F929F92EE
S1130C40AF92BF92CF92EF92FF920F931F93CF93E5
S1130C50DF93CDB7DEB7EC970FB6F894DEBF0FBEC7
S1130C60CDBF962E142FF89419822A831B82215FFC
S1130C702C838AE20E94400B64E0CE0101960E941C
S1130C80520B0E947C0B19821A831B82195E1C83EF
S1130C908BE20E94400B64E0CE0101960E94520B4D
S1130CA00E947C0BBE016F5C7F4F892D0E94530311
S1130CB08CE20E94400B812C912CF401F595E79570
S1130CC081E390E08C0F9D1FE80FF91F9081FE01D6
S1130CD0319686E090FF07C0E082F1820283E382CE
S1130CE0F482058306C0A082B182C282A382B48248
S1130CF0C58296958A5F3696863361F760E3CE01A6
S1130D0001960E94520B9FEF891A990A88E188166E
S1130D10910499F60E947C0B7894EC960FB6F894A3
S1130D20DEBF0FBECDBFDF91CF911F910F91FF901A
S1130D30EF90CF90BF90AF909F908F900895CF93F6
S1130D40DF93EC018A85823009F44DC038F488239E
S1130D5061F0813009F068C082E053C0833009F447
S1130D604FC0843009F453C05FC08A819B810E94C4
S1130D70ED128823A9F08A819B810E94F5122B85AC
S1130D803C85823059F4C9010E944D1281E08A8762
S1130D9068857985CE010E9419134BC0C90147C0EB
S1130DA08C819D810E94ED12882309F47DC08C8181
S1130DB09D810E94F5122B853C85823081F4C90106
S1130DC00E944D1283E08A8768857985CB01880F5C
S1130DD0991F680F791FCE010E9419132EC0C901F3
S1130DE00E946E122AC08A819B810E94FB1281118B
S1130DF02AC08C819D810E94FB12811124C030C0C5
S1130E0084E08A878B859C850E946E1246C08A8105
S1130E109B810E94FB12811125C08C819D810E94BF
S1130E20FB1281111FC01CC01A868B859C850E94F1
S1130E306E128A819B810E94F8128C819D81DF91C0
S1130E40CF910C94F8128A819B810E94FB12882313
S1130E5081F08C819D810E94FB1281110AC017C010
S1130E601A86E7CF8A819B810E94FB1281110FC0F1
S1130E70F0CF83E08A878B859C850E944D1268851C
S1130E807985CB01880F991F680F791F08C081E00D
S1130E908A878B859C850E944D1268857985CE0151
S1130EA0DF91CF910C941913DF91CF910895FC0138
S1130EB08EE492E0918380837383628355834483B9
S1130EC0348723878FE0868380E590E0918780874D
S1130ED01782089521E0FC018285811120E0822F90
S1130EE00895CF93DF93FC01228521110EC0EC01FC
S1130EF083E492E00E948019E881F9810190F081F5
S1130F00E02DCE01DF91CF910994DF91CF91089527
S1130F10FC0182850895FC01668385E0689FB00129
S1130F20112480E797E10E94C717718760870895AD
S1130F30FC016783089524E532E0FC0131832083BA
S1130F40259A2D9A62E370E00C942B04CF93DF93DF
S1130F501F92CDB7DEB785B18983998180E2892755
S1130F608983898185B90F90DF91CF9108950C947D
S1130F70A607CF93DF93CDB7DEB7E0970FB6F8940B
S1130F80DEBF0FBECDBF81E090E00E9430170E940B
S1130F90810481E090E00E9430170E94031382E0F4
S1130FA090E00E9430170E949B0781E090E00E942D
S1130FB030179AA789A70E947B0D81E090E00E94D8
S1130FC030179F8B8E8B0E947B0D80913402909101
S1130FD03502A09136028DA79EA7AFA70E94721377
S1130FE086E191E09093870380938603909389032D
S1130FF08093880390938B0380938A0386E592E021
S11310000E9480190E94AD048AB18D8B8D89806401
S11310108AB98BB18D8B8D898F7B8BB98BE090E0F6
S11310200E9430179BA38AA348E261E00E948F12BA
S11310308BE090E00E94301798A78FA348E263E00A
S11310400E948F128BE090E00E9430179F8F8E8F4A
S11310504BE267E00E948F128FE090E00E9430170D
S113106099A388A325E244E063E00E942B058CEA5F
S113107090E00E9430178A8F9B8F20E030E042E995
S113108051E068A179A10E9497138CEA90E00E9434
S113109030178DA39EA324E230E042E951E068A119
S11310A079A10E94971342E0FE0131964F01BF01DE
S11310B08A8D9B8D0E94BC15140110E03401F3014C
S11310C001900020E9F73197E619F709C101881961
S11310D099098E179F0798F4F10161911F01A12CC2
S11310E0B12CACE4CA2EE12CBCEFFB2E00E0212F86
S11310F040E08E899F890E941E06105FE0CF42E087
S1131100B3018DA19EA10E94BC15340110E0CE0153
S113111001961C01F10101900020E9F73197E219D1
S1131120F309C301881999098E179F0790F4F301F5
S113113061913F01A12CB12CFCE4CF2EEDA4FEA4BF
S11311400FA5212F44E28E899F890E941E06105FFD
S1131150E1CF8BE590E00E9430171C016E897F89F6
S11311600E941E0F85E090E00E943017998F888FAF
S1131170B1010E9442128DE090E00E9430179D8FD1
S11311808C8F288D398D4FA158A56AA17BA10E940F
S113119057076A8D7B8D888D998D0E94461260E079
S11311A0C1010E94780F62E08A8D9B8D0E94811498
S11311B0698B7A8B8B8B9C8B69897A898B899C89C7
S11311C00E94D804C1010E946C0F082FC1010E9423
S11311D0720F682F8C8D9D8D0E948B07C1010E9418
S11311E0750F682F8C8D9D8D0E94980762E0888D05
S11311F0998D0E944A126A8D7B8D888D998D0E94EB
S1131200461240E069E08E899F890E941C0E60911D
S11312100601709107018AE692E00E944019DA8C77
S11312207B8C12E0CE0101962C01C1010E946C0F4F
S11312308CA3013009F0F3C0811100C1C1010E94E7
S1131240630F182FC1010E94660F412FB201811153
S113125050C08A8D9B8D0E94BC153401D12CF201A3
S113126001900020E9F73197E419F509C3018819C1
S113127099098E179F07A0F4F30161913F01A12CF6
S1131280B12C7CE4C72EE12CECEFFE2E00E02D2DDA
S113129040E08E899F890E941E06F0E1DF0EDFCFB9
S11312A0412FB2018DA19EA10E94BC153401D12C05
S11312B0F20101900020E9F73197E419F509C3011F
S11312C0881999098E179F0708F062C0F30161918C
S11312D03F01A12CB12C5CE4C52EEDA4FEA40FA506
S11312E02D2D44E28E899F890E941E06F0E1DF0EB7
S11312F0DFCF8A8D9B8D0E94BC153401D12CF20165
S113130001900020E9F73197E419F509C301881920
S113131099098E179F0798F4F30161913F01A12C5D
S1131320B12C4CE4C42EEDA4FEA40FA52D2D40E059
S11313308E899F890E941E06F0E1DF0EE0CF412FC7
S1131340B2018DA19EA10E94BC153401D12CF201E1
S113135001900020E9F73197E419F509C3018819D0
S113136099098E179F07B8F4F30161913F01A12CED
S1131370B12C2CE4C22EE12C3CEFF32E00E02D2DF9
S113138044E28E899F890E941E06F0E1DF0EDFCFC2
S1131390DA8C7B8C02C0DDA07EA0C1010E94600FAC
S11313A0682F8D2D972D0E94CB14C1010E94690FC7
S11313B081110AC0612F8D2D972D0E948114698B94
S11313C07A8B8B8B9C8B09C089899A89AB89BC8960
S11313D0612F8D2D972D0E94A61469897A898B8996
S11313E09C890E94D804C1010E94720F682F8C8DC1
S11313F09D8D0E948B07C1010E94750F682F8C8DF3
S11314009D8D0E949807612F888D998D0E944A12A4
S11314106D2D772D888D998D0E9446128EC02CA13A
S1131420213079F4011113C029A53AA54E8D5F8DA1
S113143068A179A1C1010E94E0117FC08CA1813013
S113144031F08CA1882369F0813009F076C029A598
S11314503AA54E8D5F8D68A179A1C1010E94BA0F92
S11314606CC08E8D9F8D0E94ED128823A9F08E8D05
S11314709F8D0E94F512823051F08E8D9F8D0E94B7
S1131480F512813021F461E0C1010E946F0F8E8D4D
S11314909F8D0E94F81251C088A199A10E94FF0556
S11314A0882309F44AC0612F8D2D972D0E94EE13D5
S11314B088A199A10E940A06612F8D2D972D0E9463
S11314C0A614698B7A8B8B8B9C8B69897A898B891F
S11314D09C890E94D804412FB2018D2D972D0E9422
S11314E0BC158D2D972D0E94F01588AB9CA68BA65C
S11314F0612CF20101900020E9F73197E419F50914
S11315008BA59CA5881999098E179F07B0F4EBA5A4
S1131510FCA56191FCA7EBA7A12CB12C8CE4C82EEF
S1131520E12C9CEFF92E00E0262D48A98E899F8995
S11315300E941E06F0E16F0EDCCFC1010E94750F00
S1131540811120C08AA19BA10E94ED12811102C0C9
S11315500CA16BCE8AA19BA10E94F512823029F4C2
S1131560888D998D0E944D1204C0888D998D0E949A
S11315706E128AA19BA10E94F8128FA198A50E94C5
S1131580F812E6CFC1010E94750F1F928F9380E776
S113159092E09F938F930E946A198C8D9D8D0E9477
S11315A06A070F900F900F900F90882369F08AA11B
S11315B09BA10E94ED12811118C08FA198A50E94D1
S11315C0ED12811112C0C4CF8C8D9D8D0E948807AD
S11315D01F928F93EBE7F2E0FF93EF930E946A1957
S11315E00F900F900F900F90B3CF8C8D9D8D0E9414
S11315F07107AECF08950E94B907CF93DF931F926E
S1131600CDB7DEB78BB1898389818F7D8983898149
S11316108BB980EA90E00E94AC048981806289835E
S113162089818BB96DE070E080E090E00E9416043F
S11316300F90DF91CF910895CF93DF9300D0CDB772
S1131640DEB79BB19A839A81998328E030E099812F
S113165087FF02C0986001C0977F998399819BB9E5
S1131660998194609BB999819BB9880F2150310964
S113167071F78A818BB90F900F90DF91CF91089504
S1131680CF93DF931F92CDB7DEB79BB19983998136
S11316909F7A998399819BB90E941C0B0F90DF91CB
S11316A0CF910895CF92DF92EF92FF920F931F9301
S11316B0CF93DF931F92CDB7DEB76C018BB18983D3
S11316C0898180618BB98601E62EF12CC8018C19C1
S11316D09D098E159F0534F4F80181918F010E94B4
S11316E01C0BF4CF0F90DF91CF911F910F91FF90BE
S11316F0EF90DF90CF9008958BB1837880668BB99B
S11317000895F89489E20E94400B0E947C0B78941F
S11317100895F89481E10E94400B0E947C0B789418
S11317200895CF93DF931F92CDB7DEB780EA898304
S1131730F89486E30E94400B61E0CE0101960E947A
S1131740520B0E947C0B8AE30E94400B86E0898343
S113175061E0CE0101960E94520B0E947C0B7894AA
S11317600F90DF91CF910895EF92FF920F931F9303
S1131770CF93DF93CDB7DEB7A4970FB6F894DEBF4F
S11317800FBECDBF082F80916C031CE0819F102DEC
S1131790112480916E03880F880F880FF8941982A2
S11317A08A831B82895F8C838AE20E94400B64E0F7
S11317B0CE0101960E94520B0E947C0B19821A835F
S11317C01B82155F1C838BE20E94400B64E0CE01F8
S11317D001960E94520B0E947C0BBE01675E7F4FF4
S11317E0802F0E9453038CE20E94400B8E01075EFF
S11317F01F4F7E0185E2E80EF11CF80191918F01E3
S113180020917303309174034091750350917003D8
S11318106091710370917203FE01319683E090FF31
S113182004C020833183428303C050836183728365
S113183096958D5F33968B3191F768E1CE010196D1
S11318400E94520B0E151F05C1F60E947C0B80915D
S11318506E0390916F0301968431910529F0909362
S11318606F0380936E0315C010926F0310926E0382
S113187080916C0390916D0301968A30910529F053
S113188090936D0380936C0304C010926D031092C7
S11318906C037894A4960FB6F894DEBF0FBECDBF48
S11318A0DF91CF911F910F91FF90EF9008956F9268
S11318B07F928F929F92AF92CF92DF92EF92FF929C
S11318C00F931F93CF93DF93CDB7DEB7A4970FB6D3
S11318D0F894DEBF0FBECDBF762EF42E122F442314
S11318E059F010916C038CE0189F102D1124009175
S11318F06E03000F000F000FF89419820A831B82F5
S1131900095F0C838AE20E94400B64E0CE010196D9
S11319100E94520B0E947C0B19821A831B82155F52
S11319201C838BE20E94400B64E0CE0101960E946E
S1131930520B0E947C0BBE01675E7F4F872D0E9475
S113194053038CE20E94400B8E01075E1F4F3E0141
S113195085E2680E711CF80191918F01FE013196A8
S113196083E090FF04C0C082D182E28203C08082FF
S11319709182A28296958D5F33968B3191F768E1BF
S1131980CE0101960E94520B0615170521F70E94FD
S11319907C0BFF2011F180916E0390916F030196EF
S11319A08431910529F090936F0380936E0315C0E1
S11319B010926F0310926E0380916C0390916D03EB
S11319C001968A30910529F090936D0380936C03FE
S11319D004C010926D0310926C037894A4960FB611
S11319E0F894DEBF0FBECDBFDF91CF911F910F9151
S11319F0FF90EF90DF90CF90AF909F908F907F906B
S1131A006F9008956F927F928F92EF92FF920F934F
S1131A101F93CF93DF93CDB7DEB727970FB6F89414
S1131A20DEBF0FBECDBF60907003709071038090D5
S1131A30720310927003109271038CE4809372030A
S1131A40F89419821A821B8280EA8C838AE20E94AB
S1131A50400B64E0CE0101960E94520B0E947C0B65
S1131A6019821A821B8280E88C838BE20E94400BCD
S1131A7064E0CE0101960E94520B0E947C0B80917F
S1131A8070038D83809171038E83809172038F83A1
S1131A908CE20E94400B00E810E080EAE82EF12C72
S1131AA063E0CE0105960E94520B81E0E81AF1082A
S1131AB0B9F70150110989F7789410926D031092C7
S1131AC06C0310926F0310926E0360927003709215
S1131AD071038092720327960FB6F894DEBF0FBE8F
S1131AE0CDBFDF91CF911F910F91FF90EF908F9019
S1131AF07F906F9008950F931F93CF93DF931F925E
S1131B00CDB7DEB720916B0321114BC08C018AB194
S1131B10898389818C67898389818AB98BB1898317
S1131B2089818378898389818066898389818BB956
S1131B308091370290913802A09139028093730307
S1131B4090937403A0937503109270031092710321
S1131B508CE48093720310926F0310926E031092C0
S1131B606D0310926C03C8010E94FD0AC8010E9413
S1131B70910B6CE070E080E090E00E941604C801D4
S1131B800E94890B6CE070E080E090E00E941604F3
S1131B90C8010E94810BC8010E94020D81E080935C
S1131BA06B030F90DF91CF911F910F9108952F92A6
S1131BB03F924F925F926F928F929F92AF92CF9289
S1131BC0DF92EF92FF920F93CF93DF9300D000D078
S1131BD01F92CDB7DEB79D838C832901642EE982E1
S1131BE0FA820B831B01F10161911F01662379F0D5
S1131BF089809A80AB80E62C620100916E0320916B
S1131C006C0341E08C819D810E94570CECCF0F90B6
S1131C100F900F900F900F90DF91CF910F91FF9045
S1131C20EF90DF90CF90AF909F908F906F905F90E8
S1131C304F903F902F900895ECE6F3E070E07183AD
S1131C40608350E05383428308950E94B40B80E084
S1131C5090E00895845B9F4F21E0FC012083089568
S1131C60FB01DC01480F591FA417B50719F0219196
S1131C702D93FACF08952F923F924F925F926F92D5
S1131C807F928F929F92AF92BF92CF92DF92EF9208
S1131C90FF920F931F93CF93DF93CDB7DEB7629775
S1131CA00FB6F894DEBF0FBECDBF6C014B015C01D3
S1131CB02BE4A20EB11CD5011C92312C10E05BE088
S1131CC0252E2C01B5E54B0E511CFC01EE5AFF4F9D
S1131CD0FA8BE98BCE0101963C01D5018C918630BB
S1131CE009F491C0F601289EE00DF11D11244485EC
S1131CF06285C4010E941C0EF201E080F180028121
S1131D00A989BA892D913D914C91F5018081F60103
S1131D10289EE00DF11D112466857785C4010E947B
S1131D20D70DD5018C91F601289EE00DF11D1124EB
S1131D3042896089C4010E941C0EF50180818230B1
S1131D4031F170F48823D1F0813009F049C0D60113
S1131D501396EC91F0E0EE0FFF1FE25CFE4F3EC0E5
S1131D60843039F1E8F08530D9F5D6011596EC9137
S1131D70F0E0EE0FFF1FE65DFE4F30C0D601129675
S1131D80EC91F0E0EE0FFF1FEC5CFE4F27C0D60194
S1131D901496EC91F0E0EE0FFF1FE25DFE4F1EC0C3
S1131DA0D6011796EC91F0E0EE0FFF1FEC5DFE4FAD
S1131DB015C0F60180851F928F938EE892E09F9361
S1131DC08F937F926F920E94B0190F900F900F9093
S1131DD00F900F900F90362C172D02C03080118178
S1131DE0F201E080F1800281A989BA892D913D91A7
S1131DF04C91632D712FC4010E94D70DF501808190
S1131E008F5F80836ACFD5011C9262960FB6F894D7
S1131E10DEBF0FBECDBFDF91CF911F910F91FF9019
S1131E20EF90DF90CF90BF90AF909F908F907F9076
S1131E306F905F904F903F902F9008950F931F9352
S1131E40CF93DF93EC018B018AE093E0998388833D
S1131E5081E08A8382E08B831C821D821E821F8222
S1131E6082E18887FE01E45BFF4F10823496718320
S1131E70608338961082319610823196108238979A
S1131E8080913A0290913B02A0913C02808391831D
S1131E90A283339610823196108231968CE480832B
S1131EA042E450E060E571E0CE0109960E94300EF4
S1131EB0B801CE01DF91CF911F910F910C943B0E8D
S1131EC0FC0182810895FC0183810895FC018481D1
S1131ED00895FC0185810895FC0186810895FC0123
S1131EE066830895FC0180850895FC018781089527
S1131EF0AF92BF92CF92DF92EF92FF920F93CF9364
S1131F00DF93EC016D83E62FF0E0EE0FFF1FE65D3B
S1131F10FE4FA080B180DE01A75BBF4FFE01E95BED
S1131F20FF4F6E0180E5C80ED11C4C916081F60113
S1131F30808191810E941C0E8D81811103C020E05B
S1131F403CEF02C02CEF30E0CB5ADF4FE880F98041
S1131F500A8140E0B501F601808191810E94D70D8C
S1131F60DF91CF910F91FF90EF90DF90CF90BF90D2
S1131F70AF9008952F923F924F925F926F927F920B
S1131F808F929F92AF92BF92CF92DF92EF92FF9285
S1131F900F931F93CF93DF93CDB7DEB760970FB640
S1131FA0F894DEBF0FBECDBF6C015B013A0149015D
S1131FB01C0188E5280E311C8CEFD1018C93F601AD
S1131FC0E75AFF4F1082319610822601BCE44B0E73
S1131FD0511CF2018081882399F110828601055BEE
S1131FE01F4FD8018C915BE0F52EF601F89EE00DB1
S1131FF0F11D112444856285C9010E941C0EF6015D
S1132000EB5AFF4F80819181A281339720813181E6
S11320104281F8015081F601F59EE00DF11D112475
S1132020668577857C010A2FC4010E94D70D81E063
S1132030F601E15BFF4F808364E0C5010E9419064D
S1132040C3010E94ED12882309F481C0C3010E94D8
S1132050F512823081F4C3010E94F81268EC70E03A
S1132060C6010E945004F601E35BFF4F9183808315
S1132070D2011C926CC0C3010E94F512813009F098
S113208066C0C3010E94F812F601E15BFF4F808134
S1132090882321F01082F601168279C1F601E35BF0
S11320A0FF4F808191810E9474043601FBE46F0E1E
S11320B0711CD3018C911BE0F601189FE00DF11DFA
S11320C0112444856285C4010E941C0E2601B5E5D5
S11320D04B0E511CF201E080F18002813397208184
S11320E031814281D3018C91F601189FE00DF11DDD
S11320F0112466857785C4010E94D70DF301808180
S11321008F5F863011F0808301C01082F3018081DB
S11321101BE0F601189FE00DF11D11244485628532
S1132120C4010E941C0ED201ED90FD900C91F101AE
S1132130208131814281D3018C91F601189FE00DF9
S1132140F11D112466857785C4010E94D70DC50150
S11321500E94FF05882309F41AC13601BBE46B0E03
S1132160711CF3018081823009F45EC028F4882355
S113217061F08130A1F1EAC0843009F499C008F417
S113218075C0853009F4C8C0E1C0C5010E940706C6
S1132190813051F4D60112968C9112978F5F85305D
S11321A079F4F601128212C0C5010E94070682303A
S11321B069F4D60112968C911297811104C084E0BF
S11321C012968C9303C08150F6018283D601129635
S11321D0EC91F0E0EE0FFF1FEC5CFE4F22C0C50156
S11321E00E940706813039F4F60183818F5F8930BC
S11321F061F413820EC0C5010E940706823049F4BF
S1132200F6018381811103C088E0838302C0815079
S11322108383D6011396EC91F0E0EE0FFF1FE25C8E
S1132220FE4F5080418094C0C5010E940706813052
S113223039F4F60184818F5F833059F414820DC020
S1132240C5010E940706823041F4F6019481911180
S113225002C0848302C091509483D6011496EC91F9
S1132260F0E0EE0FFF1FE25DFE4FDBCFC5010E94E1
S11322700706813039F4F60187818F5F833059F482
S113228017820DC0C5010E940706823041F4F60191
S11322909781911102C0878302C091509783D60120
S11322A01796EC91F0E0EE0FFF1FEC5DFE4FB9CFF7
S11322B0C5010E940706813039F4F60180858F5FDD
S11322C08A3160F089E10DC0C5010E9407068230A1
S11322D059F4F60180858150853010F0808704C060
S11322E085E0D60118968C93F60180851F928F9312
S11322F081E992E09F938F938E010F5F1F4F1F938D
S11323000F930E94B0190F900F900F900F900F90A1
S11323100F90502E412E1CC0C5010E940706882331
S113232061F0D60115968C911597811104C081E056
S113233015968C9302C0F6011582D6011596EC9180
S1132340F0E0EE0FFF1FE65DFE4F6BCF512C412CEA
S1132350C5010E940A06F3018081F6019BE0899F72
S1132360E00DF11D112442896089C4010E941C0EF4
S1132370F601EB5AFF4FE080F18002813397208110
S113238031814281652D742DC4010E94D70D609660
S11323900FB6F894DEBF0FBECDBFDF91CF911F9172
S11323A00F91FF90EF90DF90CF90BF90AF909F90F0
S11323B08F907F906F905F904F903F902F900895F3
S11323C06F927F928F929F92AF92BF92CF92DF9241
S11323D0EF92FF920F931F93CF93DF93EC015B0176
S11323E04A0169018C01055B1F4FF80180819BE064
S11323F0F92EFE01F89EE00DF11D1124628544853D
S11324003E01F8E56F0E711C8CEFF3018083319669
S1132410108231961082C9010E941C0EFE01EB5AF3
S1132420FF4F80819181A281F3012081318142811A
S1132430F8015081FE01F59EE00DF11D1124668521
S113244077857C010A2FC6010E94D70D61E0C50182
S11324500E941906FE01E15BFF4F10829601A40160
S1132460B501CE01DF91CF911F910F91FF90EF90B5
S1132470DF90CF90BF90AF909F908F907F906F90A0
S11324800C94BA0FFC01718360830895FC0173837B
S113249062830895FC01648308950F931F93CF937F
S11324A0DF931F92CDB7DEB78C01FC01648182817A
S11324B093810E94A6140E94D8048BB189838981D8
S11324C080648BB961E0F801808191810E94780F6A
S11324D00F90DF91CF911F910F9108950F931F9348
S11324E0CF93DF931F92CDB7DEB78C01FC016481DB
S11324F0828193810E9481140E94D8048BB18983C4
S113250089818F7B8BB960E0F801808191810E9481
S1132510780F0F90DF91CF911F910F910895FC01D7
S113252080E193E09183808381E090E0062E01C0F6
S1132530880F0A94EAF7A42FB0E0B483A3839D0123
S113254022503109368325831197B087A78362838C
S11325509C91282F209592239C93A381B4819C91D4
S1132560982B9C93A581B6819C91892311F01186A7
S113257002C082E08187128661E070E0CF010C9492
S11325802B04FC01A581B6812C9181E090E00280AE
S113259002C0880F991F0A94E2F782239185913033
S11325A051F028F0923061F0933079F00895811160
S11325B011C081E008C081110DC082E0818709C08B
S11325C0882341F083E081870895882319F01186D8
S11325D081E0828708950C94C11221E0FC01828578
S11325E0811101C020E0822F0895FC0182850895A5
S11325F0FC0112860895FC019185925081E092308D
S113260008F080E0089580917803811111C0109240
S1132610800088E0809381001092820010928500EF
S11326201092840082E080936F0081E080937803AD
S11326300895AC019B01A8EEB3E00E94FD17DC01F4
S1132640CB0126E0B695A795979587952A95D1F75E
S113265050937703409376032DE0209381001092EA
S1132660850010928400909389008093880082E012
S113267080936F00089588E08093810010926F002A
S11326808091760390917703009739F0DC01ED9106
S1132690FC910190F081E02D099408951F920F920E
S11326A00FB60F9211242F933F934F935F936F9321
S11326B07F938F939F93AF93BF93EF93FF930E9466
S11326C03B13FF91EF91BF91AF919F918F917F91B8
S11326D06F915F914F913F912F910F900FBE0F908B
S11326E01F9018951092C50088E08093C40088E17B
S11326F08093C1008EE08093C20008958091C00051
S113270087FFFCCF8091C60090E00895CF93C82F37
S11327108A3019F48DE00E9486138091C00085FFF1
S1132720FCCFC093C60080E090E0CF910895CF9293
S1132730DF92EF92FF92CF93FA01DC014E555F4F87
S1132740C080D180E280F380CD92DD92ED92FC9244
S11327501397C480D580E680F7801496CD92DD92DD
S1132760ED92FC921797C0851896CC931897C18464
S1132770D284E384F4841996CD92DD92ED92FC9296
S11327801C97C584D684E784F0881D96CD92DD928B
S1132790ED92FC925097C1895196CC9351977296C1
S11327A05296E417F50761F6FC01E955FF4F718372
S11327B06083359744E650E060E070E040835183E5
S11327C062837383349641E040833396318320835C
S11327D0CF91FF90EF90DF90CF9008958F929F92CA
S11327E0AF92BF92CF92DF92EF92FF921F93CF935B
S11327F0DF93EC01162F7C0127EAE20EF11CF701AE
S1132800808191810E94FF05882309F46EC0F7013D
S1132810808191810E940706823091F5FE01EE5578
S1132820FF4F80809180A280B380F70180819181E5
S11328300E941306DC011196A50194010E94171849
S1132840FE0122E1129FE00DF11D1124C080D18010
S1132850E280F380C61AD70AE80AF90AC082D18254
S1132860E282F382EF01C184D284E384F484A70179
S11328709601261B370B480B590BDA01C90131C0ED
S1132880813099F5FE01EE55FF4F80809180A28042
S1132890B380F701808191810E940D06DC011196BD
S11328A0A50194010E941718FE0122E1129FE00D78
S11328B0F11D1124C080D180E280F380C60ED71EA2
S11328C0E81EF91EC082D182E282F382EF01C18444
S11328D0D284E384F484DC01CB018C0D9D1DAE1DF8
S11328E0BF1D89879A87AB87BC87DF91CF911F91E2
S11328F0FF90EF90DF90CF90BF90AF909F908F901C
S113290008950F931F93FC0102E1609FE00DF11DF8
S1132910112480819181A281B38144815581668192
S113292077818C019D01040F151F261F371FC901D4
S1132930B801208530E040E050E00E94DB17CA0176
S1132940B9010E9425161F910F9108950F931F93AB
S1132950FC0102E1609FE00DF11D11248185928547
S1132960A385B48545855685678570898C019D014D
S1132970040F151F261F371FC901B801218930E034
S113298040E050E00E94DB17CA01B9010E942516FD
S11329901F910F910895FC01EA55FF4F6083DC01FC
S11329A0AE55BF4F84E0689FF0011124EE5EFC4FEA
S11329B040815181628173814D935D936D937C93CA
S11329C013970895CF92DF92EF92FF92CF93DF9304
S11329D06A017B01E901CB01BA0120E031EE45EF48
S11329E055E00E94DB1780E3820F888360E071EE7C
S11329F085EF95E00E94B717C61AD70AE80AF90AC4
S1132A00C701B60120E836E948E950E00E94DB1727
S1132A1080E3820F898360E876E988E990E00E9488
S1132A20B717C61AD70AE80AF90AC701B60120E49B
S1132A3032E44FE050E00E94DB1780E3820F8A8388
S1132A4060E472E48FE090E00E94B717C61AD70AD8
S1132A50E80AF90AC701B60120EA36E841E050E085
S1132A600E94DB1780E3820F8B8360EA76E881E0C3
S1132A7090E00E94B717C61AD70AE80AF90AC701F4
S1132A80B60120E137E240E050E00E94DB1780E32A
S1132A90820F8C83A0E1B7E20E940C18C61AD70AF1
S1132AA0E80AF90AC701B60128EE33E040E050E035
S1132AB00E94DB1780E3820F8D83A8EEB3E00E94AF
S1132AC00C18C61AD70AE80AF90AC701B60124E69F
S1132AD030E040E050E00E94DB1780E3820F8E83F9
S1132AE0A4E6B0E00E940C18C61AD70AE80AF90A4C
S1132AF0C701B6012AE030E040E050E00E94DB1755
S1132B0080E3820F8F83AAE0B0E00E940C18A70133
S1132B109601261B370B480B590BDA01C901805D5E
S1132B2088871986DF91CF91FF90EF90DF90CF9047
S1132B300895FA01DB0180E090E020E030E05EE2FD
S1132B402115310559F08330910519F0863091052E
S1132B5011F4508331962C91208304C04C9140335E
S1132B6021F04083319621E030E0019611968930BE
S1132B70910531F710820895EF92FF920F931F93FE
S1132B80CF93DF93CDB7DEB760970FB6F894DEBF6F
S1132B900FBECDBF8C017B01FC0182E1489FE00D9B
S1132BA0F11D112441855285638574859E012F5F33
S1132BB03F4FC8010E94E214A701BE016F5F7F4F1F
S1132BC0C8010E94991560960FB6F894DEBF0FBE37
S1132BD0CDBFDF91CF911F910F91FF90EF9008959A
S1132BE087559F4FFC018081918108950E946A1648
S1132BF088F09F5798F0B92F9927B751B0F0E1F0BA
S1132C00660F771F881F991F1AF0BA95C9F714C069
S1132C10B13091F00E948416B1E008950C948416AA
S1132C20672F782F8827B85F39F0B93FCCF38695A2
S1132C3077956795B395D9F73EF4909580957095FF
S1132C4061957F4F8F4F9F4F0895E89409C097FB7C
S1132C503EF490958095709561957F4F8F4F9F4F6F
S1132C609923A9F0F92F96E9BB279395F6958795B3
S1132C7077956795B795F111F8CFFAF4BB0F11F476
S1132C8060FF1BC06F5F7F4F8F4F9F4F16C088231D
S1132C9011F096E911C0772321F09EE8872F762F53
S1132CA005C0662371F096E8862F70E060E02AF094
S1132CB09A95660F771F881FDAF7880F9695879580
S1132CC097F9089557FD9058440F551F59F05F3FE9
S1132CD071F04795880F97FB991F61F09F3F79F03A
S1132CE087950895121613061406551FF2CF4695BC
S1132CF0F1DF08C0161617061806991FF1CF86953E
S1132D007105610508940895E894BB276627772721
S1132D10CB0197F908950E949E160C940F170E94F8
S1132D20011738F00E94081720F0952311F00C9435
S1132D30F8160C94FE1611240C9485160E94621643
S1132D4070F3959FC1F3950F50E0551F629FF001FA
S1132D50729FBB27F00DB11D639FAA27F00DB11D13
S1132D60AA1F649F6627B00DA11D661F829F22279C
S1132D70B00DA11D621F739FB00DA11D621F839F23
S1132D80A00D611D221F749F3327A00D611D231FF9
S1132D90849F600D211D822F762F6A2F11249F5747
S1132DA050409AF0F1F088234AF0EE0FFF1FBB1F4A
S1132DB0661F771F881F91505040A9F79E3F510509
S1132DC080F00C94F8160C9485165F3FE4F3983E5B
S1132DD0D4F3869577956795B795F795E7959F5FB3
S1132DE0C1F7FE2B880F911D9695879597F9089545
S1132DF097F99F6780E870E060E008959FEF80ECAA
S1132E00089500240A94161617061806090608954C
S1132E1000240A9412161306140605060895092EB2
S1132E200394000C11F4882352F0BB0F40F4BF2B21
S1132E3011F460FF04C06F5F7F4F8F4F9F4F089561
S1132E4008950E947C170E9420170E94FA0AC0E08D
S1132E50D0E00E94FB0A2097E1F30E940000F9CF22
S1132E600C941F181F920F920FB60F9211242F93D8
S1132E703F938F939F93AF93BF9380917A039091E5
S1132E807B03A0917C03B0917D033091790323E00F
S1132E90230F2D3720F40196A11DB11D05C026E88E
S1132EA0230F0296A11DB11D2093790380937A0309
S1132EB090937B03A0937C03B0937D0380917E0366
S1132EC090917F03A0918003B09181030196A11D8D
S1132ED0B11D80937E0390937F03A0938003B093EE
S1132EE08103BF91AF919F918F913F912F910F904B
S1132EF00FBE0F901F901895789484B5826084BD9E
S1132F0084B5816084BD85B5826085BD85B58160E9
S1132F1085BDEEE6F0E0808181608083E1E8F0E049
S1132F201082808182608083808181608083E0E878
S1132F30F0E0808181608083E1EBF0E08081846057
S1132F408083E0EBF0E0808181608083EAE7F0E059
S1132F5080818460808380818260808380818160BD
S1132F6080838081806880831092C1000895DB0192
S1132F708F939F930E940C18BF91AF91A29F800DD5
S1132F80911DA39F900DB29F900D11240895AA1B2B
S1132F90BB1B51E107C0AA1FBB1FA617B70710F040
S1132FA0A61BB70B881F991F5A95A9F78095909572
S1132FB0BC01CD010895A1E21A2EAA1BBB1BFD0181
S1132FC00DC0AA1FBB1FEE1FFF1FA217B307E40704
S1132FD0F50720F0A21BB30BE40BF50B661F771F5C
S1132FE0881F991F1A9469F760957095809590953C
S1132FF09B01AC01BD01CF010895A29FB001B39F15
S1133000C001A39F700D811D1124911DB29F700DED
S1133010811D1124911D08950E94FD17A59F900DF7
S1133020B49F900DA49F800D911D11240895B7FFA6
S11330300C940C180E940C18821B930B08950F9388
S11330401F93CF93DF938230910510F482E090E0D8
S1133050E0918403F091850320E030E0A0E0B0E04B
S1133060309719F140815181028113814817590722
S1133070C8F08417950769F4109731F012960C93F1
S1133080129713961C9327C000938403109385030F
S113309022C02115310519F04217530718F49A017B
S11330A0BD01EF01DF01F801DBCF21153105F9F096
S11330B0281B390B2430310580F48A819B816115EA
S11330C0710521F0FB019383828304C090938503EF
S11330D080938403FE01329644C0FE01E20FF31F85
S11330E08193919322503109398328833AC02091E6
S11330F0820330918303232B41F420910201309108
S113310003013093830320938203209100013091C3
S113311001012115310541F42DB73EB74091040159
S113312050910501241B350BE0918203F091830338
S1133130E217F307A0F42E1B3F0B2817390778F08A
S1133140AC014E5F5F4F2417350748F04E0F5F1FE9
S113315050938303409382038193919302C0E0E0F0
S1133160F0E0CF01DF91CF911F910F910895CF939C
S1133170DF93009709F481C0FC0132971382128215
S1133180A0918403B0918503109781F4208131814B
S1133190820F931F209182033091830328173907EC
S11331A051F5F0938303E093820367C0ED0120E0BF
S11331B030E0CE17DF0740F44A815B819E01411560
S11331C05105F1F0EA01F5CFD383C28340815181E7
S11331D0840F951FC817D90759F488819981840FE2
S11331E0951F0296918380838A819B819383828336
S11331F02115310529F4F0938503E09384033DC040
S1133200E901FB83EA8349915991C40FD51FEC1757
S1133210FD0761F480819181840F951F0296E90175
S113322099838883828193819B838A83E0E0F0E0A1
S113323012968D919C911397009719F0FD01DC0172
S1133240F7CF8D919C9111979D012E5F3F4F820F77
S1133250931F20918203309183032817390769F45F
S1133260309729F4109285031092840302C01382CC
S11332701282B0938303A0938203DF91CF910895C8
S1133280EF92FF920F931F93CF93DF93DB0113967B
S11332902C9121FF18C08B017C01D0E0C0E0F70124
S11332A081917F01882361F0D8011896ED91FC91FA
S11332B01997B8010995892B91F3DFEFCFEFEFCF81
S11332C08D2F9C2F02C08FEF9FEFCDB7DEB7E6E0C6
S11332D00C948B1CA0E0B0E0E0E7F9E10C94731CC3
S11332E0AE014B5F5F4FFA0161917191AF01809123
S11332F08803909189030E94D219E2E00C948F1CF8
S11333000F931F93CF93DF93E0918803F091890388
S1133310238121FF1BC08C01D0E0C0E0F801819122
S11333208F016091880370918903DB011896ED91F8
S1133330FC911997882331F00995892B79F3DFEFF4
S1133340CFEFECCF8AE00995892B19F08FEF9FEF2F
S113335002C08D2F9C2FDF91CF911F910F91089563
S1133360AEE0B0E0E6EBF9E10C94711C0D891E8926
S113337086E08C831A8309838FEF9FE79E838D8376
S1133380AE01475E5F4F6F89788DCE0101960E9432
S1133390D219EF81F885E00FF11F10822E96E4E038
S11333A00C948D1CABE0B0E0E8EDF9E10C94631CE7
S11333B06C017B018A01FC0117821682838181FFE3
S11333C0CCC1CE0101963C01F6019381F70193FD36
S11333D0859193FF81917F01882309F4BAC18532D5
S11333E039F493FD859193FF81917F01853229F40E
S11333F0B60190E00E94C91BE7CF912C212C312CFF
S1133400FFE1F315D8F08B3279F038F4803279F09B
S11334108332A1F4232D20611DC08D3261F08033ED
S113342069F4232D216016C0832D8260382EE32D8C
S1133430E4603E2E2AC0F32DF8601DC037FC2DC079
S113344020ED280F2A3040F08E32B9F436FC81C1C9
S1133450232D2064322E19C036FE06C08AE0989EC1
S1133460200D1124922E11C0EAE02E9E200D11246D
S1133470222EF32DF0623F2E08C08C3621F4832DCA
S11334808068382E02C0883641F4F70193FD859197
S113349093FF81917F018111B3CF982F9F7D955424
S11334A0933028F40C5F1F4F9FE399830DC083363C
S11334B031F0833771F0833509F059C021C0F80128
S11334C0808189830E5F1F4F88248394912C53013C
S11334D013C02801F2E04F0E511CF801A080B18006
S11334E036FE03C0692D70E002C06FEF7FEFC501A7
S11334F00E94BE1B4C018201F32DFF773F2E16C0A4
S1133500280122E0420E511CF801A080B18036FE51
S113351003C0692D70E002C06FEF7FEFC5010E9408
S1133520B31B4C01F32DF0683F2E820133FC1BC00A
S1133530822D90E088169906B0F4B60180E290E0FE
S11335400E94C91B2A94F4CFF50137FC859137FEFC
S113355081915F01B60190E00E94C91B21102A9459
S113356021E0821A91088114910471F7E8C084362D
S113357011F0893641F5F80137FE07C06081718189
S1133580828193810C5F1F4F08C060817181072E77
S1133590000C880B990B0E5F1F4FF32DFF763F2E07
S11335A097FF09C090958095709561957F4F8F4FD7
S11335B09F4FF0683F2E2AE030E0A3010E94051CD3
S11335C0882E861845C0853731F4232D2F7EB22EE0
S11335D02AE030E025C0932D997FB92E8F36C1F0B3
S11335E018F4883579F0B5C0803719F0883721F0A0
S11335F0B0C0E92FE061BE2EB4FE0DC0FB2DF46017
S1133600BF2E09C034FE0AC0292F2660B22E06C080
S113361028E030E005C020E130E002C020E132E0E3
S1133620F801B7FE07C060817181828193810C5FCC
S11336301F4F06C06081718180E090E00E5F1F4FD4
S1133640A3010E94051C882E8618FB2DFF773F2EB0
S113365036FE0DC0232D2E7FA22E891458F434FE7D
S11336600BC032FC09C0832D8E7EA82E05C0B82C59
S1133670A32C03C0B82C01C0B92CA4FE0FC0FE01BA
S1133680E80DF11D8081803321F49A2D997EA92EB5
S113369009C0A2FE06C0B394B39404C08A2D8678F0
S11336A009F0B394A3FC11C0A0FE06C0B21488F4C0
S11336B0280C922C9B180EC0B21460F4B60180E260
S11336C090E00E94C91BB394F7CFB21418F42B18DE
S11336D002C0982C212CA4FE10C0B60180E390E017
S11336E00E94C91BA2FE17C0A1FC03C088E790E09A
S11336F002C088E590E0B6010CC08A2D867859F0A6
S1133700A1FE02C08BE201C080E2A7FC8DE2B601FB
S113371090E00E94C91B891438F4B60180E390E05C
S11337200E94C91B9A94F7CF8A94F301E80DF11D06
S11337308081B60190E00E94C91B8110F5CF222040
S113374009F442CEB60180E290E00E94C91B2A949B
S1133750F6CFF6018681978102C08FEF9FEF2B96FB
S1133760E2E10C947F1CFC01059061507040011053
S1133770D8F7809590958E0F9F1F0895FC01615096
S1133780704001900110D8F7809590958E0F9F1F7F
S113379008950F931F93CF93DF93FB01238121FDA2
S11337A003C08FEF9FEF2CC022FF16C046815781C4
S11337B0248135814217530744F4A081B1819D01CE
S11337C02F5F3F4F318320838C93268137812F5F76
S11337D03F4F3783268314C08B01EC01FB01008427
S11337E0F185E02D0995892BE1F6D80116968D9186
S11337F09C911797019617969C938E931697CE01DA
S1133800DF91CF911F910F910895FA01AA272830D3
S113381051F1203181F1E8946F936E7F6E5F7F4F99
S11338208F4F9F4FAF4FB1E03ED0B4E03CD0670F15
S1133830781F891F9A1FA11D680F791F8A1F911D68
S1133840A11D6A0F711D811D911DA11D20D009F4B8
S113385068943F912AE0269F11243019305D3193FA
S1133860DEF6CF010895462F4770405D4193B3E0E3
S11338700FD0C9F7F6CF462F4F70405D4A3318F08A
S1133880495D31FD4052419302D0A9F7EACFB4E03B
S1133890A6959795879577956795BA95C9F70097F3
S11338A06105710508959B01AC010A2E0694579594
S11338B0479537952795BA95C9F7620F731F841FEB
S11338C0951FA01D08952F923F924F925F926F9281
S11338D07F928F929F92AF92BF92CF92DF92EF929C
S11338E0FF920F931F93CF93DF93CDB7DEB7CA1B1D
S11338F0DB0B0FB6F894DEBF0FBECDBF09942A8848
S1133900398848885F846E847D848C849B84AA84EF
S1133910B984C884DF80EE80FD800C811B81AA817C
S1133920B981CE0FD11D0FB6F894DEBF0FBECDBF47
S10B3930ED010895F894FFCFA6
S113393800008C03200008010000000200000000C1
S1133948250E00000000000000030000000086139C
S11339587E130000950298029B029E02A202A60210
S1133968AA02AE02B202B602BA02BE02C202C6027B
S1133978CA02CE02D202D602DA02DE02E202B2029F
S11339880006000000E602060005000106000C001F
S1133998EC02060011000207000000F2020700040E
S11339A8000307000700F70207000A000407000ED7
S11339B800FB0207001200050800000000030800CD
S11339C8050040771B006079FEFF0140771B00006B
S11339D800000001E06735006079FEFF01E067350B
S11339E8000000000001C0CF6A006079FEFF01C03A
S11339F8CF6A000000000001809698006079FEFFFD
S1133A0801809698000000000001809FD500C0F254
S1133A18FCFF02809FD500000000000220B21301C1
S1133A28C0F2FCFF0220B213010000000002406F44
S1133A384001206CFBFF03406F40010000000003BD
S1133A4890CA7B01206CFBFF0390CA7B0100000035
S1133A580003003FAB0180E5F9FF04003FAB010020
S1133A68000000047C7C7CFCFCFCFCFCFC000000EA
S1133A7800FD0575706461746500000000009F0610
S1133A8800000000B7076D61696E3A2053746172D3
S1133A9874696E67206C6F6F700041413644510041
S1133AA86B65793A20307825780A006B65796572F8
S1133AB82073746174653A20307825780A00256487
S1133AC800253269005354004247005044005258BC
S1133AD82000545820004120200042202000535048
S1133AE820003130200031303000314B200031309B
S1133AF84B00314D2000313630003830200034304E
S1133B082000333020003230200031372000313596
S1133B1820003132200053544550200042414E4485
S1133B28200056464F20004B592000535044200093
S1133B384D4F44452000000000002A0E00000000FC
S1133B48EB120A00000064000000E80300001027DC
S10D3B580000A086010040420F00A7
S9030000FC
